{
	"contract/contracts/SupplyChain.sol": {
		"SupplyChain": {
			"abi": [
				{
					"inputs": [
						{
							"internalType": "string",
							"name": "",
							"type": "string"
						}
					],
					"name": "products",
					"outputs": [
						{
							"internalType": "string",
							"name": "name",
							"type": "string"
						},
						{
							"internalType": "string",
							"name": "origin",
							"type": "string"
						},
						{
							"internalType": "string",
							"name": "status",
							"type": "string"
						},
						{
							"internalType": "address",
							"name": "currentHolder",
							"type": "address"
						}
					],
					"stateMutability": "view",
					"type": "function"
				},
				{
					"inputs": [
						{
							"internalType": "string",
							"name": "id",
							"type": "string"
						},
						{
							"internalType": "string",
							"name": "name",
							"type": "string"
						},
						{
							"internalType": "string",
							"name": "origin",
							"type": "string"
						}
					],
					"name": "registerProduct",
					"outputs": [],
					"stateMutability": "nonpayable",
					"type": "function"
				},
				{
					"inputs": [
						{
							"internalType": "string",
							"name": "id",
							"type": "string"
						},
						{
							"internalType": "address",
							"name": "newHolder",
							"type": "address"
						}
					],
					"name": "transferHolder",
					"outputs": [],
					"stateMutability": "nonpayable",
					"type": "function"
				},
				{
					"inputs": [
						{
							"internalType": "string",
							"name": "id",
							"type": "string"
						},
						{
							"internalType": "string",
							"name": "status",
							"type": "string"
						}
					],
					"name": "updateStatus",
					"outputs": [],
					"stateMutability": "nonpayable",
					"type": "function"
				}
			],
			"devdoc": {
				"kind": "dev",
				"methods": {},
				"version": 1
			},
			"evm": {
				"assembly": "    /* \"contract/contracts/SupplyChain.sol\":57:832  contract SupplyChain {... */\n  mstore(0x40, 0x80)\n  callvalue\n  dup1\n  iszero\n  tag_1\n  jumpi\n  revert(0x00, 0x00)\ntag_1:\n  pop\n  dataSize(sub_0)\n  dup1\n  dataOffset(sub_0)\n  0x00\n  codecopy\n  0x00\n  return\nstop\n\nsub_0: assembly {\n        /* \"contract/contracts/SupplyChain.sol\":57:832  contract SupplyChain {... */\n      mstore(0x40, 0x80)\n      callvalue\n      dup1\n      iszero\n      tag_1\n      jumpi\n      revert(0x00, 0x00)\n    tag_1:\n      pop\n      jumpi(tag_2, lt(calldatasize, 0x04))\n      shr(0xe0, calldataload(0x00))\n      dup1\n      0x0186a423\n      eq\n      tag_3\n      jumpi\n      dup1\n      0x3406b718\n      eq\n      tag_4\n      jumpi\n      dup1\n      0x347047cc\n      eq\n      tag_5\n      jumpi\n      dup1\n      0x363a01d1\n      eq\n      tag_6\n      jumpi\n    tag_2:\n      revert(0x00, 0x00)\n        /* \"contract/contracts/SupplyChain.sol\":210:252  mapping(string => Product) public products */\n    tag_3:\n      tag_7\n      0x04\n      dup1\n      calldatasize\n      sub\n      dup2\n      add\n      swap1\n      tag_8\n      swap2\n      swap1\n      tag_9\n      jump\t// in\n    tag_8:\n      tag_10\n      jump\t// in\n    tag_7:\n      mload(0x40)\n      tag_11\n      swap5\n      swap4\n      swap3\n      swap2\n      swap1\n      tag_12\n      jump\t// in\n    tag_11:\n      mload(0x40)\n      dup1\n      swap2\n      sub\n      swap1\n      return\n        /* \"contract/contracts/SupplyChain.sol\":259:427  function registerProduct(string memory id, string memory name, string memory origin) public {... */\n    tag_4:\n      tag_13\n      0x04\n      dup1\n      calldatasize\n      sub\n      dup2\n      add\n      swap1\n      tag_14\n      swap2\n      swap1\n      tag_15\n      jump\t// in\n    tag_14:\n      tag_16\n      jump\t// in\n    tag_13:\n      stop\n        /* \"contract/contracts/SupplyChain.sol\":433:624  function updateStatus(string memory id, string memory status) public {... */\n    tag_5:\n      tag_17\n      0x04\n      dup1\n      calldatasize\n      sub\n      dup2\n      add\n      swap1\n      tag_18\n      swap2\n      swap1\n      tag_19\n      jump\t// in\n    tag_18:\n      tag_20\n      jump\t// in\n    tag_17:\n      stop\n        /* \"contract/contracts/SupplyChain.sol\":630:830  function transferHolder(string memory id, address newHolder) public {... */\n    tag_6:\n      tag_21\n      0x04\n      dup1\n      calldatasize\n      sub\n      dup2\n      add\n      swap1\n      tag_22\n      swap2\n      swap1\n      tag_23\n      jump\t// in\n    tag_22:\n      tag_24\n      jump\t// in\n    tag_21:\n      stop\n        /* \"contract/contracts/SupplyChain.sol\":210:252  mapping(string => Product) public products */\n    tag_10:\n      0x00\n      dup2\n      dup1\n      mload\n      0x20\n      dup2\n      add\n      dup3\n      add\n      dup1\n      mload\n      dup5\n      dup3\n      mstore\n      0x20\n      dup4\n      add\n      0x20\n      dup6\n      add\n      keccak256\n      dup2\n      dup4\n      mstore\n      dup1\n      swap6\n      pop\n      pop\n      pop\n      pop\n      pop\n      pop\n      0x00\n      swap2\n      pop\n      swap1\n      pop\n      dup1\n      0x00\n      add\n      dup1\n      sload\n      tag_25\n      swap1\n      tag_26\n      jump\t// in\n    tag_25:\n      dup1\n      0x1f\n      add\n      0x20\n      dup1\n      swap2\n      div\n      mul\n      0x20\n      add\n      mload(0x40)\n      swap1\n      dup2\n      add\n      0x40\n      mstore\n      dup1\n      swap3\n      swap2\n      swap1\n      dup2\n      dup2\n      mstore\n      0x20\n      add\n      dup3\n      dup1\n      sload\n      tag_27\n      swap1\n      tag_26\n      jump\t// in\n    tag_27:\n      dup1\n      iszero\n      tag_28\n      jumpi\n      dup1\n      0x1f\n      lt\n      tag_29\n      jumpi\n      0x0100\n      dup1\n      dup4\n      sload\n      div\n      mul\n      dup4\n      mstore\n      swap2\n      0x20\n      add\n      swap2\n      jump(tag_28)\n    tag_29:\n      dup3\n      add\n      swap2\n      swap1\n      0x00\n      mstore\n      keccak256(0x00, 0x20)\n      swap1\n    tag_30:\n      dup2\n      sload\n      dup2\n      mstore\n      swap1\n      0x01\n      add\n      swap1\n      0x20\n      add\n      dup1\n      dup4\n      gt\n      tag_30\n      jumpi\n      dup3\n      swap1\n      sub\n      0x1f\n      and\n      dup3\n      add\n      swap2\n    tag_28:\n      pop\n      pop\n      pop\n      pop\n      pop\n      swap1\n      dup1\n      0x01\n      add\n      dup1\n      sload\n      tag_31\n      swap1\n      tag_26\n      jump\t// in\n    tag_31:\n      dup1\n      0x1f\n      add\n      0x20\n      dup1\n      swap2\n      div\n      mul\n      0x20\n      add\n      mload(0x40)\n      swap1\n      dup2\n      add\n      0x40\n      mstore\n      dup1\n      swap3\n      swap2\n      swap1\n      dup2\n      dup2\n      mstore\n      0x20\n      add\n      dup3\n      dup1\n      sload\n      tag_32\n      swap1\n      tag_26\n      jump\t// in\n    tag_32:\n      dup1\n      iszero\n      tag_33\n      jumpi\n      dup1\n      0x1f\n      lt\n      tag_34\n      jumpi\n      0x0100\n      dup1\n      dup4\n      sload\n      div\n      mul\n      dup4\n      mstore\n      swap2\n      0x20\n      add\n      swap2\n      jump(tag_33)\n    tag_34:\n      dup3\n      add\n      swap2\n      swap1\n      0x00\n      mstore\n      keccak256(0x00, 0x20)\n      swap1\n    tag_35:\n      dup2\n      sload\n      dup2\n      mstore\n      swap1\n      0x01\n      add\n      swap1\n      0x20\n      add\n      dup1\n      dup4\n      gt\n      tag_35\n      jumpi\n      dup3\n      swap1\n      sub\n      0x1f\n      and\n      dup3\n      add\n      swap2\n    tag_33:\n      pop\n      pop\n      pop\n      pop\n      pop\n      swap1\n      dup1\n      0x02\n      add\n      dup1\n      sload\n      tag_36\n      swap1\n      tag_26\n      jump\t// in\n    tag_36:\n      dup1\n      0x1f\n      add\n      0x20\n      dup1\n      swap2\n      div\n      mul\n      0x20\n      add\n      mload(0x40)\n      swap1\n      dup2\n      add\n      0x40\n      mstore\n      dup1\n      swap3\n      swap2\n      swap1\n      dup2\n      dup2\n      mstore\n      0x20\n      add\n      dup3\n      dup1\n      sload\n      tag_37\n      swap1\n      tag_26\n      jump\t// in\n    tag_37:\n      dup1\n      iszero\n      tag_38\n      jumpi\n      dup1\n      0x1f\n      lt\n      tag_39\n      jumpi\n      0x0100\n      dup1\n      dup4\n      sload\n      div\n      mul\n      dup4\n      mstore\n      swap2\n      0x20\n      add\n      swap2\n      jump(tag_38)\n    tag_39:\n      dup3\n      add\n      swap2\n      swap1\n      0x00\n      mstore\n      keccak256(0x00, 0x20)\n      swap1\n    tag_40:\n      dup2\n      sload\n      dup2\n      mstore\n      swap1\n      0x01\n      add\n      swap1\n      0x20\n      add\n      dup1\n      dup4\n      gt\n      tag_40\n      jumpi\n      dup3\n      swap1\n      sub\n      0x1f\n      and\n      dup3\n      add\n      swap2\n    tag_38:\n      pop\n      pop\n      pop\n      pop\n      pop\n      swap1\n      dup1\n      0x03\n      add\n      0x00\n      swap1\n      sload\n      swap1\n      0x0100\n      exp\n      swap1\n      div\n      0xffffffffffffffffffffffffffffffffffffffff\n      and\n      swap1\n      pop\n      dup5\n      jump\t// out\n        /* \"contract/contracts/SupplyChain.sol\":259:427  function registerProduct(string memory id, string memory name, string memory origin) public {... */\n    tag_16:\n        /* \"contract/contracts/SupplyChain.sol\":376:420  Product(name, origin, \"Created\", msg.sender) */\n      mload(0x40)\n      dup1\n      0x80\n      add\n      0x40\n      mstore\n      dup1\n        /* \"contract/contracts/SupplyChain.sol\":384:388  name */\n      dup4\n        /* \"contract/contracts/SupplyChain.sol\":376:420  Product(name, origin, \"Created\", msg.sender) */\n      dup2\n      mstore\n      0x20\n      add\n        /* \"contract/contracts/SupplyChain.sol\":390:396  origin */\n      dup3\n        /* \"contract/contracts/SupplyChain.sol\":376:420  Product(name, origin, \"Created\", msg.sender) */\n      dup2\n      mstore\n      0x20\n      add\n      mload(0x40)\n      dup1\n      0x40\n      add\n      0x40\n      mstore\n      dup1\n      0x07\n      dup2\n      mstore\n      0x20\n      add\n      0x4372656174656400000000000000000000000000000000000000000000000000\n      dup2\n      mstore\n      pop\n      dup2\n      mstore\n      0x20\n      add\n        /* \"contract/contracts/SupplyChain.sol\":409:419  msg.sender */\n      caller\n        /* \"contract/contracts/SupplyChain.sol\":376:420  Product(name, origin, \"Created\", msg.sender) */\n      0xffffffffffffffffffffffffffffffffffffffff\n      and\n      dup2\n      mstore\n      pop\n        /* \"contract/contracts/SupplyChain.sol\":361:369  products */\n      0x00\n        /* \"contract/contracts/SupplyChain.sol\":370:372  id */\n      dup5\n        /* \"contract/contracts/SupplyChain.sol\":361:373  products[id] */\n      mload(0x40)\n      tag_42\n      swap2\n      swap1\n      tag_43\n      jump\t// in\n    tag_42:\n      swap1\n      dup2\n      mstore\n      0x20\n      add\n      mload(0x40)\n      dup1\n      swap2\n      sub\n      swap1\n      keccak256\n        /* \"contract/contracts/SupplyChain.sol\":361:420  products[id] = Product(name, origin, \"Created\", msg.sender) */\n      0x00\n      dup3\n      add\n      mload\n      dup2\n      0x00\n      add\n      swap1\n      dup2\n      tag_44\n      swap2\n      swap1\n      tag_45\n      jump\t// in\n    tag_44:\n      pop\n      0x20\n      dup3\n      add\n      mload\n      dup2\n      0x01\n      add\n      swap1\n      dup2\n      tag_46\n      swap2\n      swap1\n      tag_45\n      jump\t// in\n    tag_46:\n      pop\n      0x40\n      dup3\n      add\n      mload\n      dup2\n      0x02\n      add\n      swap1\n      dup2\n      tag_47\n      swap2\n      swap1\n      tag_45\n      jump\t// in\n    tag_47:\n      pop\n      0x60\n      dup3\n      add\n      mload\n      dup2\n      0x03\n      add\n      exp(0x0100, 0x00)\n      dup2\n      sload\n      dup2\n      0xffffffffffffffffffffffffffffffffffffffff\n      mul\n      not\n      and\n      swap1\n      dup4\n      0xffffffffffffffffffffffffffffffffffffffff\n      and\n      mul\n      or\n      swap1\n      sstore\n      pop\n      swap1\n      pop\n      pop\n        /* \"contract/contracts/SupplyChain.sol\":259:427  function registerProduct(string memory id, string memory name, string memory origin) public {... */\n      pop\n      pop\n      pop\n      jump\t// out\n        /* \"contract/contracts/SupplyChain.sol\":433:624  function updateStatus(string memory id, string memory status) public {... */\n    tag_20:\n        /* \"contract/contracts/SupplyChain.sol\":550:560  msg.sender */\n      caller\n        /* \"contract/contracts/SupplyChain.sol\":520:560  products[id].currentHolder == msg.sender */\n      0xffffffffffffffffffffffffffffffffffffffff\n      and\n        /* \"contract/contracts/SupplyChain.sol\":520:528  products */\n      0x00\n        /* \"contract/contracts/SupplyChain.sol\":529:531  id */\n      dup4\n        /* \"contract/contracts/SupplyChain.sol\":520:532  products[id] */\n      mload(0x40)\n      tag_49\n      swap2\n      swap1\n      tag_43\n      jump\t// in\n    tag_49:\n      swap1\n      dup2\n      mstore\n      0x20\n      add\n      mload(0x40)\n      dup1\n      swap2\n      sub\n      swap1\n      keccak256\n        /* \"contract/contracts/SupplyChain.sol\":520:546  products[id].currentHolder */\n      0x03\n      add\n      0x00\n      swap1\n      sload\n      swap1\n      0x0100\n      exp\n      swap1\n      div\n      0xffffffffffffffffffffffffffffffffffffffff\n      and\n        /* \"contract/contracts/SupplyChain.sol\":520:560  products[id].currentHolder == msg.sender */\n      0xffffffffffffffffffffffffffffffffffffffff\n      and\n      eq\n        /* \"contract/contracts/SupplyChain.sol\":512:579  require(products[id].currentHolder == msg.sender, \"Not authorized\") */\n      tag_50\n      jumpi\n      mload(0x40)\n      0x08c379a000000000000000000000000000000000000000000000000000000000\n      dup2\n      mstore\n      0x04\n      add\n      tag_51\n      swap1\n      tag_52\n      jump\t// in\n    tag_51:\n      mload(0x40)\n      dup1\n      swap2\n      sub\n      swap1\n      revert\n    tag_50:\n        /* \"contract/contracts/SupplyChain.sol\":611:617  status */\n      dup1\n        /* \"contract/contracts/SupplyChain.sol\":589:597  products */\n      0x00\n        /* \"contract/contracts/SupplyChain.sol\":598:600  id */\n      dup4\n        /* \"contract/contracts/SupplyChain.sol\":589:601  products[id] */\n      mload(0x40)\n      tag_53\n      swap2\n      swap1\n      tag_43\n      jump\t// in\n    tag_53:\n      swap1\n      dup2\n      mstore\n      0x20\n      add\n      mload(0x40)\n      dup1\n      swap2\n      sub\n      swap1\n      keccak256\n        /* \"contract/contracts/SupplyChain.sol\":589:608  products[id].status */\n      0x02\n      add\n        /* \"contract/contracts/SupplyChain.sol\":589:617  products[id].status = status */\n      swap1\n      dup2\n      tag_54\n      swap2\n      swap1\n      tag_45\n      jump\t// in\n    tag_54:\n      pop\n        /* \"contract/contracts/SupplyChain.sol\":433:624  function updateStatus(string memory id, string memory status) public {... */\n      pop\n      pop\n      jump\t// out\n        /* \"contract/contracts/SupplyChain.sol\":630:830  function transferHolder(string memory id, address newHolder) public {... */\n    tag_24:\n        /* \"contract/contracts/SupplyChain.sol\":746:756  msg.sender */\n      caller\n        /* \"contract/contracts/SupplyChain.sol\":716:756  products[id].currentHolder == msg.sender */\n      0xffffffffffffffffffffffffffffffffffffffff\n      and\n        /* \"contract/contracts/SupplyChain.sol\":716:724  products */\n      0x00\n        /* \"contract/contracts/SupplyChain.sol\":725:727  id */\n      dup4\n        /* \"contract/contracts/SupplyChain.sol\":716:728  products[id] */\n      mload(0x40)\n      tag_56\n      swap2\n      swap1\n      tag_43\n      jump\t// in\n    tag_56:\n      swap1\n      dup2\n      mstore\n      0x20\n      add\n      mload(0x40)\n      dup1\n      swap2\n      sub\n      swap1\n      keccak256\n        /* \"contract/contracts/SupplyChain.sol\":716:742  products[id].currentHolder */\n      0x03\n      add\n      0x00\n      swap1\n      sload\n      swap1\n      0x0100\n      exp\n      swap1\n      div\n      0xffffffffffffffffffffffffffffffffffffffff\n      and\n        /* \"contract/contracts/SupplyChain.sol\":716:756  products[id].currentHolder == msg.sender */\n      0xffffffffffffffffffffffffffffffffffffffff\n      and\n      eq\n        /* \"contract/contracts/SupplyChain.sol\":708:775  require(products[id].currentHolder == msg.sender, \"Not authorized\") */\n      tag_57\n      jumpi\n      mload(0x40)\n      0x08c379a000000000000000000000000000000000000000000000000000000000\n      dup2\n      mstore\n      0x04\n      add\n      tag_58\n      swap1\n      tag_52\n      jump\t// in\n    tag_58:\n      mload(0x40)\n      dup1\n      swap2\n      sub\n      swap1\n      revert\n    tag_57:\n        /* \"contract/contracts/SupplyChain.sol\":814:823  newHolder */\n      dup1\n        /* \"contract/contracts/SupplyChain.sol\":785:793  products */\n      0x00\n        /* \"contract/contracts/SupplyChain.sol\":794:796  id */\n      dup4\n        /* \"contract/contracts/SupplyChain.sol\":785:797  products[id] */\n      mload(0x40)\n      tag_59\n      swap2\n      swap1\n      tag_43\n      jump\t// in\n    tag_59:\n      swap1\n      dup2\n      mstore\n      0x20\n      add\n      mload(0x40)\n      dup1\n      swap2\n      sub\n      swap1\n      keccak256\n        /* \"contract/contracts/SupplyChain.sol\":785:811  products[id].currentHolder */\n      0x03\n      add\n      0x00\n        /* \"contract/contracts/SupplyChain.sol\":785:823  products[id].currentHolder = newHolder */\n      0x0100\n      exp\n      dup2\n      sload\n      dup2\n      0xffffffffffffffffffffffffffffffffffffffff\n      mul\n      not\n      and\n      swap1\n      dup4\n      0xffffffffffffffffffffffffffffffffffffffff\n      and\n      mul\n      or\n      swap1\n      sstore\n      pop\n        /* \"contract/contracts/SupplyChain.sol\":630:830  function transferHolder(string memory id, address newHolder) public {... */\n      pop\n      pop\n      jump\t// out\n        /* \"#utility.yul\":7:82   */\n    tag_60:\n        /* \"#utility.yul\":40:46   */\n      0x00\n        /* \"#utility.yul\":73:75   */\n      0x40\n        /* \"#utility.yul\":67:76   */\n      mload\n        /* \"#utility.yul\":57:76   */\n      swap1\n      pop\n        /* \"#utility.yul\":7:82   */\n      swap1\n      jump\t// out\n        /* \"#utility.yul\":88:205   */\n    tag_61:\n        /* \"#utility.yul\":197:198   */\n      0x00\n        /* \"#utility.yul\":194:195   */\n      0x00\n        /* \"#utility.yul\":187:199   */\n      revert\n        /* \"#utility.yul\":211:328   */\n    tag_62:\n        /* \"#utility.yul\":320:321   */\n      0x00\n        /* \"#utility.yul\":317:318   */\n      0x00\n        /* \"#utility.yul\":310:322   */\n      revert\n        /* \"#utility.yul\":334:451   */\n    tag_63:\n        /* \"#utility.yul\":443:444   */\n      0x00\n        /* \"#utility.yul\":440:441   */\n      0x00\n        /* \"#utility.yul\":433:445   */\n      revert\n        /* \"#utility.yul\":457:574   */\n    tag_64:\n        /* \"#utility.yul\":566:567   */\n      0x00\n        /* \"#utility.yul\":563:564   */\n      0x00\n        /* \"#utility.yul\":556:568   */\n      revert\n        /* \"#utility.yul\":580:682   */\n    tag_65:\n        /* \"#utility.yul\":621:627   */\n      0x00\n        /* \"#utility.yul\":672:674   */\n      0x1f\n        /* \"#utility.yul\":668:675   */\n      not\n        /* \"#utility.yul\":663:665   */\n      0x1f\n        /* \"#utility.yul\":656:661   */\n      dup4\n        /* \"#utility.yul\":652:666   */\n      add\n        /* \"#utility.yul\":648:676   */\n      and\n        /* \"#utility.yul\":638:676   */\n      swap1\n      pop\n        /* \"#utility.yul\":580:682   */\n      swap2\n      swap1\n      pop\n      jump\t// out\n        /* \"#utility.yul\":688:868   */\n    tag_66:\n        /* \"#utility.yul\":736:813   */\n      0x4e487b7100000000000000000000000000000000000000000000000000000000\n        /* \"#utility.yul\":733:734   */\n      0x00\n        /* \"#utility.yul\":726:814   */\n      mstore\n        /* \"#utility.yul\":833:837   */\n      0x41\n        /* \"#utility.yul\":830:831   */\n      0x04\n        /* \"#utility.yul\":823:838   */\n      mstore\n        /* \"#utility.yul\":857:861   */\n      0x24\n        /* \"#utility.yul\":854:855   */\n      0x00\n        /* \"#utility.yul\":847:862   */\n      revert\n        /* \"#utility.yul\":874:1155   */\n    tag_67:\n        /* \"#utility.yul\":957:984   */\n      tag_112\n        /* \"#utility.yul\":979:983   */\n      dup3\n        /* \"#utility.yul\":957:984   */\n      tag_65\n      jump\t// in\n    tag_112:\n        /* \"#utility.yul\":949:955   */\n      dup2\n        /* \"#utility.yul\":945:985   */\n      add\n        /* \"#utility.yul\":1087:1093   */\n      dup2\n        /* \"#utility.yul\":1075:1085   */\n      dup2\n        /* \"#utility.yul\":1072:1094   */\n      lt\n        /* \"#utility.yul\":1051:1069   */\n      0xffffffffffffffff\n        /* \"#utility.yul\":1039:1049   */\n      dup3\n        /* \"#utility.yul\":1036:1070   */\n      gt\n        /* \"#utility.yul\":1033:1095   */\n      or\n        /* \"#utility.yul\":1030:1118   */\n      iszero\n      tag_113\n      jumpi\n        /* \"#utility.yul\":1098:1116   */\n      tag_114\n      tag_66\n      jump\t// in\n    tag_114:\n        /* \"#utility.yul\":1030:1118   */\n    tag_113:\n        /* \"#utility.yul\":1138:1148   */\n      dup1\n        /* \"#utility.yul\":1134:1136   */\n      0x40\n        /* \"#utility.yul\":1127:1149   */\n      mstore\n        /* \"#utility.yul\":917:1155   */\n      pop\n        /* \"#utility.yul\":874:1155   */\n      pop\n      pop\n      jump\t// out\n        /* \"#utility.yul\":1161:1290   */\n    tag_68:\n        /* \"#utility.yul\":1195:1201   */\n      0x00\n        /* \"#utility.yul\":1222:1242   */\n      tag_116\n      tag_60\n      jump\t// in\n    tag_116:\n        /* \"#utility.yul\":1212:1242   */\n      swap1\n      pop\n        /* \"#utility.yul\":1251:1284   */\n      tag_117\n        /* \"#utility.yul\":1279:1283   */\n      dup3\n        /* \"#utility.yul\":1271:1277   */\n      dup3\n        /* \"#utility.yul\":1251:1284   */\n      tag_67\n      jump\t// in\n    tag_117:\n        /* \"#utility.yul\":1161:1290   */\n      swap2\n      swap1\n      pop\n      jump\t// out\n        /* \"#utility.yul\":1296:1604   */\n    tag_69:\n        /* \"#utility.yul\":1358:1362   */\n      0x00\n        /* \"#utility.yul\":1448:1466   */\n      0xffffffffffffffff\n        /* \"#utility.yul\":1440:1446   */\n      dup3\n        /* \"#utility.yul\":1437:1467   */\n      gt\n        /* \"#utility.yul\":1434:1490   */\n      iszero\n      tag_119\n      jumpi\n        /* \"#utility.yul\":1470:1488   */\n      tag_120\n      tag_66\n      jump\t// in\n    tag_120:\n        /* \"#utility.yul\":1434:1490   */\n    tag_119:\n        /* \"#utility.yul\":1508:1537   */\n      tag_121\n        /* \"#utility.yul\":1530:1536   */\n      dup3\n        /* \"#utility.yul\":1508:1537   */\n      tag_65\n      jump\t// in\n    tag_121:\n        /* \"#utility.yul\":1500:1537   */\n      swap1\n      pop\n        /* \"#utility.yul\":1592:1596   */\n      0x20\n        /* \"#utility.yul\":1586:1590   */\n      dup2\n        /* \"#utility.yul\":1582:1597   */\n      add\n        /* \"#utility.yul\":1574:1597   */\n      swap1\n      pop\n        /* \"#utility.yul\":1296:1604   */\n      swap2\n      swap1\n      pop\n      jump\t// out\n        /* \"#utility.yul\":1610:1758   */\n    tag_70:\n        /* \"#utility.yul\":1708:1714   */\n      dup3\n        /* \"#utility.yul\":1703:1706   */\n      dup2\n        /* \"#utility.yul\":1698:1701   */\n      dup4\n        /* \"#utility.yul\":1685:1715   */\n      calldatacopy\n        /* \"#utility.yul\":1749:1750   */\n      0x00\n        /* \"#utility.yul\":1740:1746   */\n      dup4\n        /* \"#utility.yul\":1735:1738   */\n      dup4\n        /* \"#utility.yul\":1731:1747   */\n      add\n        /* \"#utility.yul\":1724:1751   */\n      mstore\n        /* \"#utility.yul\":1610:1758   */\n      pop\n      pop\n      pop\n      jump\t// out\n        /* \"#utility.yul\":1764:2189   */\n    tag_71:\n        /* \"#utility.yul\":1842:1847   */\n      0x00\n        /* \"#utility.yul\":1867:1933   */\n      tag_124\n        /* \"#utility.yul\":1883:1932   */\n      tag_125\n        /* \"#utility.yul\":1925:1931   */\n      dup5\n        /* \"#utility.yul\":1883:1932   */\n      tag_69\n      jump\t// in\n    tag_125:\n        /* \"#utility.yul\":1867:1933   */\n      tag_68\n      jump\t// in\n    tag_124:\n        /* \"#utility.yul\":1858:1933   */\n      swap1\n      pop\n        /* \"#utility.yul\":1956:1962   */\n      dup3\n        /* \"#utility.yul\":1949:1954   */\n      dup2\n        /* \"#utility.yul\":1942:1963   */\n      mstore\n        /* \"#utility.yul\":1994:1998   */\n      0x20\n        /* \"#utility.yul\":1987:1992   */\n      dup2\n        /* \"#utility.yul\":1983:1999   */\n      add\n        /* \"#utility.yul\":2032:2035   */\n      dup5\n        /* \"#utility.yul\":2023:2029   */\n      dup5\n        /* \"#utility.yul\":2018:2021   */\n      dup5\n        /* \"#utility.yul\":2014:2030   */\n      add\n        /* \"#utility.yul\":2011:2036   */\n      gt\n        /* \"#utility.yul\":2008:2120   */\n      iszero\n      tag_126\n      jumpi\n        /* \"#utility.yul\":2039:2118   */\n      tag_127\n      tag_64\n      jump\t// in\n    tag_127:\n        /* \"#utility.yul\":2008:2120   */\n    tag_126:\n        /* \"#utility.yul\":2129:2183   */\n      tag_128\n        /* \"#utility.yul\":2176:2182   */\n      dup5\n        /* \"#utility.yul\":2171:2174   */\n      dup3\n        /* \"#utility.yul\":2166:2169   */\n      dup6\n        /* \"#utility.yul\":2129:2183   */\n      tag_70\n      jump\t// in\n    tag_128:\n        /* \"#utility.yul\":1848:2189   */\n      pop\n        /* \"#utility.yul\":1764:2189   */\n      swap4\n      swap3\n      pop\n      pop\n      pop\n      jump\t// out\n        /* \"#utility.yul\":2209:2549   */\n    tag_72:\n        /* \"#utility.yul\":2265:2270   */\n      0x00\n        /* \"#utility.yul\":2314:2317   */\n      dup3\n        /* \"#utility.yul\":2307:2311   */\n      0x1f\n        /* \"#utility.yul\":2299:2305   */\n      dup4\n        /* \"#utility.yul\":2295:2312   */\n      add\n        /* \"#utility.yul\":2291:2318   */\n      slt\n        /* \"#utility.yul\":2281:2403   */\n      tag_130\n      jumpi\n        /* \"#utility.yul\":2322:2401   */\n      tag_131\n      tag_63\n      jump\t// in\n    tag_131:\n        /* \"#utility.yul\":2281:2403   */\n    tag_130:\n        /* \"#utility.yul\":2439:2445   */\n      dup2\n        /* \"#utility.yul\":2426:2446   */\n      calldataload\n        /* \"#utility.yul\":2464:2543   */\n      tag_132\n        /* \"#utility.yul\":2539:2542   */\n      dup5\n        /* \"#utility.yul\":2531:2537   */\n      dup3\n        /* \"#utility.yul\":2524:2528   */\n      0x20\n        /* \"#utility.yul\":2516:2522   */\n      dup7\n        /* \"#utility.yul\":2512:2529   */\n      add\n        /* \"#utility.yul\":2464:2543   */\n      tag_71\n      jump\t// in\n    tag_132:\n        /* \"#utility.yul\":2455:2543   */\n      swap2\n      pop\n        /* \"#utility.yul\":2271:2549   */\n      pop\n        /* \"#utility.yul\":2209:2549   */\n      swap3\n      swap2\n      pop\n      pop\n      jump\t// out\n        /* \"#utility.yul\":2555:3064   */\n    tag_9:\n        /* \"#utility.yul\":2624:2630   */\n      0x00\n        /* \"#utility.yul\":2673:2675   */\n      0x20\n        /* \"#utility.yul\":2661:2670   */\n      dup3\n        /* \"#utility.yul\":2652:2659   */\n      dup5\n        /* \"#utility.yul\":2648:2671   */\n      sub\n        /* \"#utility.yul\":2644:2676   */\n      slt\n        /* \"#utility.yul\":2641:2760   */\n      iszero\n      tag_134\n      jumpi\n        /* \"#utility.yul\":2679:2758   */\n      tag_135\n      tag_61\n      jump\t// in\n    tag_135:\n        /* \"#utility.yul\":2641:2760   */\n    tag_134:\n        /* \"#utility.yul\":2827:2828   */\n      0x00\n        /* \"#utility.yul\":2816:2825   */\n      dup3\n        /* \"#utility.yul\":2812:2829   */\n      add\n        /* \"#utility.yul\":2799:2830   */\n      calldataload\n        /* \"#utility.yul\":2857:2875   */\n      0xffffffffffffffff\n        /* \"#utility.yul\":2849:2855   */\n      dup2\n        /* \"#utility.yul\":2846:2876   */\n      gt\n        /* \"#utility.yul\":2843:2960   */\n      iszero\n      tag_136\n      jumpi\n        /* \"#utility.yul\":2879:2958   */\n      tag_137\n      tag_62\n      jump\t// in\n    tag_137:\n        /* \"#utility.yul\":2843:2960   */\n    tag_136:\n        /* \"#utility.yul\":2984:3047   */\n      tag_138\n        /* \"#utility.yul\":3039:3046   */\n      dup5\n        /* \"#utility.yul\":3030:3036   */\n      dup3\n        /* \"#utility.yul\":3019:3028   */\n      dup6\n        /* \"#utility.yul\":3015:3037   */\n      add\n        /* \"#utility.yul\":2984:3047   */\n      tag_72\n      jump\t// in\n    tag_138:\n        /* \"#utility.yul\":2974:3047   */\n      swap2\n      pop\n        /* \"#utility.yul\":2770:3057   */\n      pop\n        /* \"#utility.yul\":2555:3064   */\n      swap3\n      swap2\n      pop\n      pop\n      jump\t// out\n        /* \"#utility.yul\":3070:3169   */\n    tag_73:\n        /* \"#utility.yul\":3122:3128   */\n      0x00\n        /* \"#utility.yul\":3156:3161   */\n      dup2\n        /* \"#utility.yul\":3150:3162   */\n      mload\n        /* \"#utility.yul\":3140:3162   */\n      swap1\n      pop\n        /* \"#utility.yul\":3070:3169   */\n      swap2\n      swap1\n      pop\n      jump\t// out\n        /* \"#utility.yul\":3175:3344   */\n    tag_74:\n        /* \"#utility.yul\":3259:3270   */\n      0x00\n        /* \"#utility.yul\":3293:3299   */\n      dup3\n        /* \"#utility.yul\":3288:3291   */\n      dup3\n        /* \"#utility.yul\":3281:3300   */\n      mstore\n        /* \"#utility.yul\":3333:3337   */\n      0x20\n        /* \"#utility.yul\":3328:3331   */\n      dup3\n        /* \"#utility.yul\":3324:3338   */\n      add\n        /* \"#utility.yul\":3309:3338   */\n      swap1\n      pop\n        /* \"#utility.yul\":3175:3344   */\n      swap3\n      swap2\n      pop\n      pop\n      jump\t// out\n        /* \"#utility.yul\":3350:3489   */\n    tag_75:\n        /* \"#utility.yul\":3439:3445   */\n      dup3\n        /* \"#utility.yul\":3434:3437   */\n      dup2\n        /* \"#utility.yul\":3429:3432   */\n      dup4\n        /* \"#utility.yul\":3423:3446   */\n      mcopy\n        /* \"#utility.yul\":3480:3481   */\n      0x00\n        /* \"#utility.yul\":3471:3477   */\n      dup4\n        /* \"#utility.yul\":3466:3469   */\n      dup4\n        /* \"#utility.yul\":3462:3478   */\n      add\n        /* \"#utility.yul\":3455:3482   */\n      mstore\n        /* \"#utility.yul\":3350:3489   */\n      pop\n      pop\n      pop\n      jump\t// out\n        /* \"#utility.yul\":3495:3872   */\n    tag_76:\n        /* \"#utility.yul\":3583:3586   */\n      0x00\n        /* \"#utility.yul\":3611:3650   */\n      tag_143\n        /* \"#utility.yul\":3644:3649   */\n      dup3\n        /* \"#utility.yul\":3611:3650   */\n      tag_73\n      jump\t// in\n    tag_143:\n        /* \"#utility.yul\":3666:3737   */\n      tag_144\n        /* \"#utility.yul\":3730:3736   */\n      dup2\n        /* \"#utility.yul\":3725:3728   */\n      dup6\n        /* \"#utility.yul\":3666:3737   */\n      tag_74\n      jump\t// in\n    tag_144:\n        /* \"#utility.yul\":3659:3737   */\n      swap4\n      pop\n        /* \"#utility.yul\":3746:3811   */\n      tag_145\n        /* \"#utility.yul\":3804:3810   */\n      dup2\n        /* \"#utility.yul\":3799:3802   */\n      dup6\n        /* \"#utility.yul\":3792:3796   */\n      0x20\n        /* \"#utility.yul\":3785:3790   */\n      dup7\n        /* \"#utility.yul\":3781:3797   */\n      add\n        /* \"#utility.yul\":3746:3811   */\n      tag_75\n      jump\t// in\n    tag_145:\n        /* \"#utility.yul\":3836:3865   */\n      tag_146\n        /* \"#utility.yul\":3858:3864   */\n      dup2\n        /* \"#utility.yul\":3836:3865   */\n      tag_65\n      jump\t// in\n    tag_146:\n        /* \"#utility.yul\":3831:3834   */\n      dup5\n        /* \"#utility.yul\":3827:3866   */\n      add\n        /* \"#utility.yul\":3820:3866   */\n      swap2\n      pop\n        /* \"#utility.yul\":3587:3872   */\n      pop\n        /* \"#utility.yul\":3495:3872   */\n      swap3\n      swap2\n      pop\n      pop\n      jump\t// out\n        /* \"#utility.yul\":3878:4004   */\n    tag_77:\n        /* \"#utility.yul\":3915:3922   */\n      0x00\n        /* \"#utility.yul\":3955:3997   */\n      0xffffffffffffffffffffffffffffffffffffffff\n        /* \"#utility.yul\":3948:3953   */\n      dup3\n        /* \"#utility.yul\":3944:3998   */\n      and\n        /* \"#utility.yul\":3933:3998   */\n      swap1\n      pop\n        /* \"#utility.yul\":3878:4004   */\n      swap2\n      swap1\n      pop\n      jump\t// out\n        /* \"#utility.yul\":4010:4106   */\n    tag_78:\n        /* \"#utility.yul\":4047:4054   */\n      0x00\n        /* \"#utility.yul\":4076:4100   */\n      tag_149\n        /* \"#utility.yul\":4094:4099   */\n      dup3\n        /* \"#utility.yul\":4076:4100   */\n      tag_77\n      jump\t// in\n    tag_149:\n        /* \"#utility.yul\":4065:4100   */\n      swap1\n      pop\n        /* \"#utility.yul\":4010:4106   */\n      swap2\n      swap1\n      pop\n      jump\t// out\n        /* \"#utility.yul\":4112:4230   */\n    tag_79:\n        /* \"#utility.yul\":4199:4223   */\n      tag_151\n        /* \"#utility.yul\":4217:4222   */\n      dup2\n        /* \"#utility.yul\":4199:4223   */\n      tag_78\n      jump\t// in\n    tag_151:\n        /* \"#utility.yul\":4194:4197   */\n      dup3\n        /* \"#utility.yul\":4187:4224   */\n      mstore\n        /* \"#utility.yul\":4112:4230   */\n      pop\n      pop\n      jump\t// out\n        /* \"#utility.yul\":4236:5062   */\n    tag_12:\n        /* \"#utility.yul\":4473:4477   */\n      0x00\n        /* \"#utility.yul\":4511:4514   */\n      0x80\n        /* \"#utility.yul\":4500:4509   */\n      dup3\n        /* \"#utility.yul\":4496:4515   */\n      add\n        /* \"#utility.yul\":4488:4515   */\n      swap1\n      pop\n        /* \"#utility.yul\":4561:4570   */\n      dup2\n        /* \"#utility.yul\":4555:4559   */\n      dup2\n        /* \"#utility.yul\":4551:4571   */\n      sub\n        /* \"#utility.yul\":4547:4548   */\n      0x00\n        /* \"#utility.yul\":4536:4545   */\n      dup4\n        /* \"#utility.yul\":4532:4549   */\n      add\n        /* \"#utility.yul\":4525:4572   */\n      mstore\n        /* \"#utility.yul\":4589:4667   */\n      tag_153\n        /* \"#utility.yul\":4662:4666   */\n      dup2\n        /* \"#utility.yul\":4653:4659   */\n      dup8\n        /* \"#utility.yul\":4589:4667   */\n      tag_76\n      jump\t// in\n    tag_153:\n        /* \"#utility.yul\":4581:4667   */\n      swap1\n      pop\n        /* \"#utility.yul\":4714:4723   */\n      dup2\n        /* \"#utility.yul\":4708:4712   */\n      dup2\n        /* \"#utility.yul\":4704:4724   */\n      sub\n        /* \"#utility.yul\":4699:4701   */\n      0x20\n        /* \"#utility.yul\":4688:4697   */\n      dup4\n        /* \"#utility.yul\":4684:4702   */\n      add\n        /* \"#utility.yul\":4677:4725   */\n      mstore\n        /* \"#utility.yul\":4742:4820   */\n      tag_154\n        /* \"#utility.yul\":4815:4819   */\n      dup2\n        /* \"#utility.yul\":4806:4812   */\n      dup7\n        /* \"#utility.yul\":4742:4820   */\n      tag_76\n      jump\t// in\n    tag_154:\n        /* \"#utility.yul\":4734:4820   */\n      swap1\n      pop\n        /* \"#utility.yul\":4867:4876   */\n      dup2\n        /* \"#utility.yul\":4861:4865   */\n      dup2\n        /* \"#utility.yul\":4857:4877   */\n      sub\n        /* \"#utility.yul\":4852:4854   */\n      0x40\n        /* \"#utility.yul\":4841:4850   */\n      dup4\n        /* \"#utility.yul\":4837:4855   */\n      add\n        /* \"#utility.yul\":4830:4878   */\n      mstore\n        /* \"#utility.yul\":4895:4973   */\n      tag_155\n        /* \"#utility.yul\":4968:4972   */\n      dup2\n        /* \"#utility.yul\":4959:4965   */\n      dup6\n        /* \"#utility.yul\":4895:4973   */\n      tag_76\n      jump\t// in\n    tag_155:\n        /* \"#utility.yul\":4887:4973   */\n      swap1\n      pop\n        /* \"#utility.yul\":4983:5055   */\n      tag_156\n        /* \"#utility.yul\":5051:5053   */\n      0x60\n        /* \"#utility.yul\":5040:5049   */\n      dup4\n        /* \"#utility.yul\":5036:5054   */\n      add\n        /* \"#utility.yul\":5027:5033   */\n      dup5\n        /* \"#utility.yul\":4983:5055   */\n      tag_79\n      jump\t// in\n    tag_156:\n        /* \"#utility.yul\":4236:5062   */\n      swap6\n      swap5\n      pop\n      pop\n      pop\n      pop\n      pop\n      jump\t// out\n        /* \"#utility.yul\":5068:6227   */\n    tag_15:\n        /* \"#utility.yul\":5175:5181   */\n      0x00\n        /* \"#utility.yul\":5183:5189   */\n      0x00\n        /* \"#utility.yul\":5191:5197   */\n      0x00\n        /* \"#utility.yul\":5240:5242   */\n      0x60\n        /* \"#utility.yul\":5228:5237   */\n      dup5\n        /* \"#utility.yul\":5219:5226   */\n      dup7\n        /* \"#utility.yul\":5215:5238   */\n      sub\n        /* \"#utility.yul\":5211:5243   */\n      slt\n        /* \"#utility.yul\":5208:5327   */\n      iszero\n      tag_158\n      jumpi\n        /* \"#utility.yul\":5246:5325   */\n      tag_159\n      tag_61\n      jump\t// in\n    tag_159:\n        /* \"#utility.yul\":5208:5327   */\n    tag_158:\n        /* \"#utility.yul\":5394:5395   */\n      0x00\n        /* \"#utility.yul\":5383:5392   */\n      dup5\n        /* \"#utility.yul\":5379:5396   */\n      add\n        /* \"#utility.yul\":5366:5397   */\n      calldataload\n        /* \"#utility.yul\":5424:5442   */\n      0xffffffffffffffff\n        /* \"#utility.yul\":5416:5422   */\n      dup2\n        /* \"#utility.yul\":5413:5443   */\n      gt\n        /* \"#utility.yul\":5410:5527   */\n      iszero\n      tag_160\n      jumpi\n        /* \"#utility.yul\":5446:5525   */\n      tag_161\n      tag_62\n      jump\t// in\n    tag_161:\n        /* \"#utility.yul\":5410:5527   */\n    tag_160:\n        /* \"#utility.yul\":5551:5614   */\n      tag_162\n        /* \"#utility.yul\":5606:5613   */\n      dup7\n        /* \"#utility.yul\":5597:5603   */\n      dup3\n        /* \"#utility.yul\":5586:5595   */\n      dup8\n        /* \"#utility.yul\":5582:5604   */\n      add\n        /* \"#utility.yul\":5551:5614   */\n      tag_72\n      jump\t// in\n    tag_162:\n        /* \"#utility.yul\":5541:5614   */\n      swap4\n      pop\n        /* \"#utility.yul\":5337:5624   */\n      pop\n        /* \"#utility.yul\":5691:5693   */\n      0x20\n        /* \"#utility.yul\":5680:5689   */\n      dup5\n        /* \"#utility.yul\":5676:5694   */\n      add\n        /* \"#utility.yul\":5663:5695   */\n      calldataload\n        /* \"#utility.yul\":5722:5740   */\n      0xffffffffffffffff\n        /* \"#utility.yul\":5714:5720   */\n      dup2\n        /* \"#utility.yul\":5711:5741   */\n      gt\n        /* \"#utility.yul\":5708:5825   */\n      iszero\n      tag_163\n      jumpi\n        /* \"#utility.yul\":5744:5823   */\n      tag_164\n      tag_62\n      jump\t// in\n    tag_164:\n        /* \"#utility.yul\":5708:5825   */\n    tag_163:\n        /* \"#utility.yul\":5849:5912   */\n      tag_165\n        /* \"#utility.yul\":5904:5911   */\n      dup7\n        /* \"#utility.yul\":5895:5901   */\n      dup3\n        /* \"#utility.yul\":5884:5893   */\n      dup8\n        /* \"#utility.yul\":5880:5902   */\n      add\n        /* \"#utility.yul\":5849:5912   */\n      tag_72\n      jump\t// in\n    tag_165:\n        /* \"#utility.yul\":5839:5912   */\n      swap3\n      pop\n        /* \"#utility.yul\":5634:5922   */\n      pop\n        /* \"#utility.yul\":5989:5991   */\n      0x40\n        /* \"#utility.yul\":5978:5987   */\n      dup5\n        /* \"#utility.yul\":5974:5992   */\n      add\n        /* \"#utility.yul\":5961:5993   */\n      calldataload\n        /* \"#utility.yul\":6020:6038   */\n      0xffffffffffffffff\n        /* \"#utility.yul\":6012:6018   */\n      dup2\n        /* \"#utility.yul\":6009:6039   */\n      gt\n        /* \"#utility.yul\":6006:6123   */\n      iszero\n      tag_166\n      jumpi\n        /* \"#utility.yul\":6042:6121   */\n      tag_167\n      tag_62\n      jump\t// in\n    tag_167:\n        /* \"#utility.yul\":6006:6123   */\n    tag_166:\n        /* \"#utility.yul\":6147:6210   */\n      tag_168\n        /* \"#utility.yul\":6202:6209   */\n      dup7\n        /* \"#utility.yul\":6193:6199   */\n      dup3\n        /* \"#utility.yul\":6182:6191   */\n      dup8\n        /* \"#utility.yul\":6178:6200   */\n      add\n        /* \"#utility.yul\":6147:6210   */\n      tag_72\n      jump\t// in\n    tag_168:\n        /* \"#utility.yul\":6137:6210   */\n      swap2\n      pop\n        /* \"#utility.yul\":5932:6220   */\n      pop\n        /* \"#utility.yul\":5068:6227   */\n      swap3\n      pop\n      swap3\n      pop\n      swap3\n      jump\t// out\n        /* \"#utility.yul\":6233:7067   */\n    tag_19:\n        /* \"#utility.yul\":6321:6327   */\n      0x00\n        /* \"#utility.yul\":6329:6335   */\n      0x00\n        /* \"#utility.yul\":6378:6380   */\n      0x40\n        /* \"#utility.yul\":6366:6375   */\n      dup4\n        /* \"#utility.yul\":6357:6364   */\n      dup6\n        /* \"#utility.yul\":6353:6376   */\n      sub\n        /* \"#utility.yul\":6349:6381   */\n      slt\n        /* \"#utility.yul\":6346:6465   */\n      iszero\n      tag_170\n      jumpi\n        /* \"#utility.yul\":6384:6463   */\n      tag_171\n      tag_61\n      jump\t// in\n    tag_171:\n        /* \"#utility.yul\":6346:6465   */\n    tag_170:\n        /* \"#utility.yul\":6532:6533   */\n      0x00\n        /* \"#utility.yul\":6521:6530   */\n      dup4\n        /* \"#utility.yul\":6517:6534   */\n      add\n        /* \"#utility.yul\":6504:6535   */\n      calldataload\n        /* \"#utility.yul\":6562:6580   */\n      0xffffffffffffffff\n        /* \"#utility.yul\":6554:6560   */\n      dup2\n        /* \"#utility.yul\":6551:6581   */\n      gt\n        /* \"#utility.yul\":6548:6665   */\n      iszero\n      tag_172\n      jumpi\n        /* \"#utility.yul\":6584:6663   */\n      tag_173\n      tag_62\n      jump\t// in\n    tag_173:\n        /* \"#utility.yul\":6548:6665   */\n    tag_172:\n        /* \"#utility.yul\":6689:6752   */\n      tag_174\n        /* \"#utility.yul\":6744:6751   */\n      dup6\n        /* \"#utility.yul\":6735:6741   */\n      dup3\n        /* \"#utility.yul\":6724:6733   */\n      dup7\n        /* \"#utility.yul\":6720:6742   */\n      add\n        /* \"#utility.yul\":6689:6752   */\n      tag_72\n      jump\t// in\n    tag_174:\n        /* \"#utility.yul\":6679:6752   */\n      swap3\n      pop\n        /* \"#utility.yul\":6475:6762   */\n      pop\n        /* \"#utility.yul\":6829:6831   */\n      0x20\n        /* \"#utility.yul\":6818:6827   */\n      dup4\n        /* \"#utility.yul\":6814:6832   */\n      add\n        /* \"#utility.yul\":6801:6833   */\n      calldataload\n        /* \"#utility.yul\":6860:6878   */\n      0xffffffffffffffff\n        /* \"#utility.yul\":6852:6858   */\n      dup2\n        /* \"#utility.yul\":6849:6879   */\n      gt\n        /* \"#utility.yul\":6846:6963   */\n      iszero\n      tag_175\n      jumpi\n        /* \"#utility.yul\":6882:6961   */\n      tag_176\n      tag_62\n      jump\t// in\n    tag_176:\n        /* \"#utility.yul\":6846:6963   */\n    tag_175:\n        /* \"#utility.yul\":6987:7050   */\n      tag_177\n        /* \"#utility.yul\":7042:7049   */\n      dup6\n        /* \"#utility.yul\":7033:7039   */\n      dup3\n        /* \"#utility.yul\":7022:7031   */\n      dup7\n        /* \"#utility.yul\":7018:7040   */\n      add\n        /* \"#utility.yul\":6987:7050   */\n      tag_72\n      jump\t// in\n    tag_177:\n        /* \"#utility.yul\":6977:7050   */\n      swap2\n      pop\n        /* \"#utility.yul\":6772:7060   */\n      pop\n        /* \"#utility.yul\":6233:7067   */\n      swap3\n      pop\n      swap3\n      swap1\n      pop\n      jump\t// out\n        /* \"#utility.yul\":7073:7195   */\n    tag_80:\n        /* \"#utility.yul\":7146:7170   */\n      tag_179\n        /* \"#utility.yul\":7164:7169   */\n      dup2\n        /* \"#utility.yul\":7146:7170   */\n      tag_78\n      jump\t// in\n    tag_179:\n        /* \"#utility.yul\":7139:7144   */\n      dup2\n        /* \"#utility.yul\":7136:7171   */\n      eq\n        /* \"#utility.yul\":7126:7189   */\n      tag_180\n      jumpi\n        /* \"#utility.yul\":7185:7186   */\n      0x00\n        /* \"#utility.yul\":7182:7183   */\n      0x00\n        /* \"#utility.yul\":7175:7187   */\n      revert\n        /* \"#utility.yul\":7126:7189   */\n    tag_180:\n        /* \"#utility.yul\":7073:7195   */\n      pop\n      jump\t// out\n        /* \"#utility.yul\":7201:7340   */\n    tag_81:\n        /* \"#utility.yul\":7247:7252   */\n      0x00\n        /* \"#utility.yul\":7285:7291   */\n      dup2\n        /* \"#utility.yul\":7272:7292   */\n      calldataload\n        /* \"#utility.yul\":7263:7292   */\n      swap1\n      pop\n        /* \"#utility.yul\":7301:7334   */\n      tag_182\n        /* \"#utility.yul\":7328:7333   */\n      dup2\n        /* \"#utility.yul\":7301:7334   */\n      tag_80\n      jump\t// in\n    tag_182:\n        /* \"#utility.yul\":7201:7340   */\n      swap3\n      swap2\n      pop\n      pop\n      jump\t// out\n        /* \"#utility.yul\":7346:8000   */\n    tag_23:\n        /* \"#utility.yul\":7424:7430   */\n      0x00\n        /* \"#utility.yul\":7432:7438   */\n      0x00\n        /* \"#utility.yul\":7481:7483   */\n      0x40\n        /* \"#utility.yul\":7469:7478   */\n      dup4\n        /* \"#utility.yul\":7460:7467   */\n      dup6\n        /* \"#utility.yul\":7456:7479   */\n      sub\n        /* \"#utility.yul\":7452:7484   */\n      slt\n        /* \"#utility.yul\":7449:7568   */\n      iszero\n      tag_184\n      jumpi\n        /* \"#utility.yul\":7487:7566   */\n      tag_185\n      tag_61\n      jump\t// in\n    tag_185:\n        /* \"#utility.yul\":7449:7568   */\n    tag_184:\n        /* \"#utility.yul\":7635:7636   */\n      0x00\n        /* \"#utility.yul\":7624:7633   */\n      dup4\n        /* \"#utility.yul\":7620:7637   */\n      add\n        /* \"#utility.yul\":7607:7638   */\n      calldataload\n        /* \"#utility.yul\":7665:7683   */\n      0xffffffffffffffff\n        /* \"#utility.yul\":7657:7663   */\n      dup2\n        /* \"#utility.yul\":7654:7684   */\n      gt\n        /* \"#utility.yul\":7651:7768   */\n      iszero\n      tag_186\n      jumpi\n        /* \"#utility.yul\":7687:7766   */\n      tag_187\n      tag_62\n      jump\t// in\n    tag_187:\n        /* \"#utility.yul\":7651:7768   */\n    tag_186:\n        /* \"#utility.yul\":7792:7855   */\n      tag_188\n        /* \"#utility.yul\":7847:7854   */\n      dup6\n        /* \"#utility.yul\":7838:7844   */\n      dup3\n        /* \"#utility.yul\":7827:7836   */\n      dup7\n        /* \"#utility.yul\":7823:7845   */\n      add\n        /* \"#utility.yul\":7792:7855   */\n      tag_72\n      jump\t// in\n    tag_188:\n        /* \"#utility.yul\":7782:7855   */\n      swap3\n      pop\n        /* \"#utility.yul\":7578:7865   */\n      pop\n        /* \"#utility.yul\":7904:7906   */\n      0x20\n        /* \"#utility.yul\":7930:7983   */\n      tag_189\n        /* \"#utility.yul\":7975:7982   */\n      dup6\n        /* \"#utility.yul\":7966:7972   */\n      dup3\n        /* \"#utility.yul\":7955:7964   */\n      dup7\n        /* \"#utility.yul\":7951:7973   */\n      add\n        /* \"#utility.yul\":7930:7983   */\n      tag_81\n      jump\t// in\n    tag_189:\n        /* \"#utility.yul\":7920:7983   */\n      swap2\n      pop\n        /* \"#utility.yul\":7875:7993   */\n      pop\n        /* \"#utility.yul\":7346:8000   */\n      swap3\n      pop\n      swap3\n      swap1\n      pop\n      jump\t// out\n        /* \"#utility.yul\":8006:8186   */\n    tag_82:\n        /* \"#utility.yul\":8054:8131   */\n      0x4e487b7100000000000000000000000000000000000000000000000000000000\n        /* \"#utility.yul\":8051:8052   */\n      0x00\n        /* \"#utility.yul\":8044:8132   */\n      mstore\n        /* \"#utility.yul\":8151:8155   */\n      0x22\n        /* \"#utility.yul\":8148:8149   */\n      0x04\n        /* \"#utility.yul\":8141:8156   */\n      mstore\n        /* \"#utility.yul\":8175:8179   */\n      0x24\n        /* \"#utility.yul\":8172:8173   */\n      0x00\n        /* \"#utility.yul\":8165:8180   */\n      revert\n        /* \"#utility.yul\":8192:8512   */\n    tag_26:\n        /* \"#utility.yul\":8236:8242   */\n      0x00\n        /* \"#utility.yul\":8273:8274   */\n      0x02\n        /* \"#utility.yul\":8267:8271   */\n      dup3\n        /* \"#utility.yul\":8263:8275   */\n      div\n        /* \"#utility.yul\":8253:8275   */\n      swap1\n      pop\n        /* \"#utility.yul\":8320:8321   */\n      0x01\n        /* \"#utility.yul\":8314:8318   */\n      dup3\n        /* \"#utility.yul\":8310:8322   */\n      and\n        /* \"#utility.yul\":8341:8359   */\n      dup1\n        /* \"#utility.yul\":8331:8412   */\n      tag_192\n      jumpi\n        /* \"#utility.yul\":8397:8401   */\n      0x7f\n        /* \"#utility.yul\":8389:8395   */\n      dup3\n        /* \"#utility.yul\":8385:8402   */\n      and\n        /* \"#utility.yul\":8375:8402   */\n      swap2\n      pop\n        /* \"#utility.yul\":8331:8412   */\n    tag_192:\n        /* \"#utility.yul\":8459:8461   */\n      0x20\n        /* \"#utility.yul\":8451:8457   */\n      dup3\n        /* \"#utility.yul\":8448:8462   */\n      lt\n        /* \"#utility.yul\":8428:8446   */\n      dup2\n        /* \"#utility.yul\":8425:8463   */\n      sub\n        /* \"#utility.yul\":8422:8506   */\n      tag_193\n      jumpi\n        /* \"#utility.yul\":8478:8496   */\n      tag_194\n      tag_82\n      jump\t// in\n    tag_194:\n        /* \"#utility.yul\":8422:8506   */\n    tag_193:\n        /* \"#utility.yul\":8243:8512   */\n      pop\n        /* \"#utility.yul\":8192:8512   */\n      swap2\n      swap1\n      pop\n      jump\t// out\n        /* \"#utility.yul\":8518:8666   */\n    tag_83:\n        /* \"#utility.yul\":8620:8631   */\n      0x00\n        /* \"#utility.yul\":8657:8660   */\n      dup2\n        /* \"#utility.yul\":8642:8660   */\n      swap1\n      pop\n        /* \"#utility.yul\":8518:8666   */\n      swap3\n      swap2\n      pop\n      pop\n      jump\t// out\n        /* \"#utility.yul\":8672:9062   */\n    tag_84:\n        /* \"#utility.yul\":8778:8781   */\n      0x00\n        /* \"#utility.yul\":8806:8845   */\n      tag_197\n        /* \"#utility.yul\":8839:8844   */\n      dup3\n        /* \"#utility.yul\":8806:8845   */\n      tag_73\n      jump\t// in\n    tag_197:\n        /* \"#utility.yul\":8861:8950   */\n      tag_198\n        /* \"#utility.yul\":8943:8949   */\n      dup2\n        /* \"#utility.yul\":8938:8941   */\n      dup6\n        /* \"#utility.yul\":8861:8950   */\n      tag_83\n      jump\t// in\n    tag_198:\n        /* \"#utility.yul\":8854:8950   */\n      swap4\n      pop\n        /* \"#utility.yul\":8959:9024   */\n      tag_199\n        /* \"#utility.yul\":9017:9023   */\n      dup2\n        /* \"#utility.yul\":9012:9015   */\n      dup6\n        /* \"#utility.yul\":9005:9009   */\n      0x20\n        /* \"#utility.yul\":8998:9003   */\n      dup7\n        /* \"#utility.yul\":8994:9010   */\n      add\n        /* \"#utility.yul\":8959:9024   */\n      tag_75\n      jump\t// in\n    tag_199:\n        /* \"#utility.yul\":9049:9055   */\n      dup1\n        /* \"#utility.yul\":9044:9047   */\n      dup5\n        /* \"#utility.yul\":9040:9056   */\n      add\n        /* \"#utility.yul\":9033:9056   */\n      swap2\n      pop\n        /* \"#utility.yul\":8782:9062   */\n      pop\n        /* \"#utility.yul\":8672:9062   */\n      swap3\n      swap2\n      pop\n      pop\n      jump\t// out\n        /* \"#utility.yul\":9068:9343   */\n    tag_43:\n        /* \"#utility.yul\":9200:9203   */\n      0x00\n        /* \"#utility.yul\":9222:9317   */\n      tag_201\n        /* \"#utility.yul\":9313:9316   */\n      dup3\n        /* \"#utility.yul\":9304:9310   */\n      dup5\n        /* \"#utility.yul\":9222:9317   */\n      tag_84\n      jump\t// in\n    tag_201:\n        /* \"#utility.yul\":9215:9317   */\n      swap2\n      pop\n        /* \"#utility.yul\":9334:9337   */\n      dup2\n        /* \"#utility.yul\":9327:9337   */\n      swap1\n      pop\n        /* \"#utility.yul\":9068:9343   */\n      swap3\n      swap2\n      pop\n      pop\n      jump\t// out\n        /* \"#utility.yul\":9349:9490   */\n    tag_85:\n        /* \"#utility.yul\":9398:9402   */\n      0x00\n        /* \"#utility.yul\":9421:9424   */\n      dup2\n        /* \"#utility.yul\":9413:9424   */\n      swap1\n      pop\n        /* \"#utility.yul\":9444:9447   */\n      dup2\n        /* \"#utility.yul\":9441:9442   */\n      0x00\n        /* \"#utility.yul\":9434:9448   */\n      mstore\n        /* \"#utility.yul\":9478:9482   */\n      0x20\n        /* \"#utility.yul\":9475:9476   */\n      0x00\n        /* \"#utility.yul\":9465:9483   */\n      keccak256\n        /* \"#utility.yul\":9457:9483   */\n      swap1\n      pop\n        /* \"#utility.yul\":9349:9490   */\n      swap2\n      swap1\n      pop\n      jump\t// out\n        /* \"#utility.yul\":9496:9589   */\n    tag_86:\n        /* \"#utility.yul\":9533:9539   */\n      0x00\n        /* \"#utility.yul\":9580:9582   */\n      0x20\n        /* \"#utility.yul\":9575:9577   */\n      0x1f\n        /* \"#utility.yul\":9568:9573   */\n      dup4\n        /* \"#utility.yul\":9564:9578   */\n      add\n        /* \"#utility.yul\":9560:9583   */\n      div\n        /* \"#utility.yul\":9550:9583   */\n      swap1\n      pop\n        /* \"#utility.yul\":9496:9589   */\n      swap2\n      swap1\n      pop\n      jump\t// out\n        /* \"#utility.yul\":9595:9702   */\n    tag_87:\n        /* \"#utility.yul\":9639:9647   */\n      0x00\n        /* \"#utility.yul\":9689:9694   */\n      dup3\n        /* \"#utility.yul\":9683:9687   */\n      dup3\n        /* \"#utility.yul\":9679:9695   */\n      shl\n        /* \"#utility.yul\":9658:9695   */\n      swap1\n      pop\n        /* \"#utility.yul\":9595:9702   */\n      swap3\n      swap2\n      pop\n      pop\n      jump\t// out\n        /* \"#utility.yul\":9708:10101   */\n    tag_88:\n        /* \"#utility.yul\":9777:9783   */\n      0x00\n        /* \"#utility.yul\":9827:9828   */\n      0x08\n        /* \"#utility.yul\":9815:9825   */\n      dup4\n        /* \"#utility.yul\":9811:9829   */\n      mul\n        /* \"#utility.yul\":9850:9947   */\n      tag_206\n        /* \"#utility.yul\":9880:9946   */\n      0xffffffffffffffffffffffffffffffffffffffffffffffffffffffffffffffff\n        /* \"#utility.yul\":9869:9878   */\n      dup3\n        /* \"#utility.yul\":9850:9947   */\n      tag_87\n      jump\t// in\n    tag_206:\n        /* \"#utility.yul\":9968:10007   */\n      tag_207\n        /* \"#utility.yul\":9998:10006   */\n      dup7\n        /* \"#utility.yul\":9987:9996   */\n      dup4\n        /* \"#utility.yul\":9968:10007   */\n      tag_87\n      jump\t// in\n    tag_207:\n        /* \"#utility.yul\":9956:10007   */\n      swap6\n      pop\n        /* \"#utility.yul\":10040:10044   */\n      dup1\n        /* \"#utility.yul\":10036:10045   */\n      not\n        /* \"#utility.yul\":10029:10034   */\n      dup5\n        /* \"#utility.yul\":10025:10046   */\n      and\n        /* \"#utility.yul\":10016:10046   */\n      swap4\n      pop\n        /* \"#utility.yul\":10089:10093   */\n      dup1\n        /* \"#utility.yul\":10079:10087   */\n      dup7\n        /* \"#utility.yul\":10075:10094   */\n      and\n        /* \"#utility.yul\":10068:10073   */\n      dup5\n        /* \"#utility.yul\":10065:10095   */\n      or\n        /* \"#utility.yul\":10055:10095   */\n      swap3\n      pop\n        /* \"#utility.yul\":9784:10101   */\n      pop\n      pop\n        /* \"#utility.yul\":9708:10101   */\n      swap4\n      swap3\n      pop\n      pop\n      pop\n      jump\t// out\n        /* \"#utility.yul\":10107:10184   */\n    tag_89:\n        /* \"#utility.yul\":10144:10151   */\n      0x00\n        /* \"#utility.yul\":10173:10178   */\n      dup2\n        /* \"#utility.yul\":10162:10178   */\n      swap1\n      pop\n        /* \"#utility.yul\":10107:10184   */\n      swap2\n      swap1\n      pop\n      jump\t// out\n        /* \"#utility.yul\":10190:10250   */\n    tag_90:\n        /* \"#utility.yul\":10218:10221   */\n      0x00\n        /* \"#utility.yul\":10239:10244   */\n      dup2\n        /* \"#utility.yul\":10232:10244   */\n      swap1\n      pop\n        /* \"#utility.yul\":10190:10250   */\n      swap2\n      swap1\n      pop\n      jump\t// out\n        /* \"#utility.yul\":10256:10398   */\n    tag_91:\n        /* \"#utility.yul\":10306:10315   */\n      0x00\n        /* \"#utility.yul\":10339:10392   */\n      tag_211\n        /* \"#utility.yul\":10357:10391   */\n      tag_212\n        /* \"#utility.yul\":10366:10390   */\n      tag_213\n        /* \"#utility.yul\":10384:10389   */\n      dup5\n        /* \"#utility.yul\":10366:10390   */\n      tag_89\n      jump\t// in\n    tag_213:\n        /* \"#utility.yul\":10357:10391   */\n      tag_90\n      jump\t// in\n    tag_212:\n        /* \"#utility.yul\":10339:10392   */\n      tag_89\n      jump\t// in\n    tag_211:\n        /* \"#utility.yul\":10326:10392   */\n      swap1\n      pop\n        /* \"#utility.yul\":10256:10398   */\n      swap2\n      swap1\n      pop\n      jump\t// out\n        /* \"#utility.yul\":10404:10479   */\n    tag_92:\n        /* \"#utility.yul\":10447:10450   */\n      0x00\n        /* \"#utility.yul\":10468:10473   */\n      dup2\n        /* \"#utility.yul\":10461:10473   */\n      swap1\n      pop\n        /* \"#utility.yul\":10404:10479   */\n      swap2\n      swap1\n      pop\n      jump\t// out\n        /* \"#utility.yul\":10485:10754   */\n    tag_93:\n        /* \"#utility.yul\":10595:10634   */\n      tag_216\n        /* \"#utility.yul\":10626:10633   */\n      dup4\n        /* \"#utility.yul\":10595:10634   */\n      tag_91\n      jump\t// in\n    tag_216:\n        /* \"#utility.yul\":10656:10747   */\n      tag_217\n        /* \"#utility.yul\":10705:10746   */\n      tag_218\n        /* \"#utility.yul\":10729:10745   */\n      dup3\n        /* \"#utility.yul\":10705:10746   */\n      tag_92\n      jump\t// in\n    tag_218:\n        /* \"#utility.yul\":10697:10703   */\n      dup5\n        /* \"#utility.yul\":10690:10694   */\n      dup5\n        /* \"#utility.yul\":10684:10695   */\n      sload\n        /* \"#utility.yul\":10656:10747   */\n      tag_88\n      jump\t// in\n    tag_217:\n        /* \"#utility.yul\":10650:10654   */\n      dup3\n        /* \"#utility.yul\":10643:10748   */\n      sstore\n        /* \"#utility.yul\":10561:10754   */\n      pop\n        /* \"#utility.yul\":10485:10754   */\n      pop\n      pop\n      pop\n      jump\t// out\n        /* \"#utility.yul\":10760:10833   */\n    tag_94:\n        /* \"#utility.yul\":10805:10808   */\n      0x00\n        /* \"#utility.yul\":10826:10827   */\n      0x00\n        /* \"#utility.yul\":10819:10827   */\n      swap1\n      pop\n        /* \"#utility.yul\":10760:10833   */\n      swap1\n      jump\t// out\n        /* \"#utility.yul\":10839:11028   */\n    tag_95:\n        /* \"#utility.yul\":10916:10948   */\n      tag_221\n      tag_94\n      jump\t// in\n    tag_221:\n        /* \"#utility.yul\":10957:11022   */\n      tag_222\n        /* \"#utility.yul\":11015:11021   */\n      dup2\n        /* \"#utility.yul\":11007:11013   */\n      dup5\n        /* \"#utility.yul\":11001:11005   */\n      dup5\n        /* \"#utility.yul\":10957:11022   */\n      tag_93\n      jump\t// in\n    tag_222:\n        /* \"#utility.yul\":10892:11028   */\n      pop\n        /* \"#utility.yul\":10839:11028   */\n      pop\n      pop\n      jump\t// out\n        /* \"#utility.yul\":11034:11220   */\n    tag_96:\n        /* \"#utility.yul\":11094:11214   */\n    tag_224:\n        /* \"#utility.yul\":11111:11114   */\n      dup2\n        /* \"#utility.yul\":11104:11109   */\n      dup2\n        /* \"#utility.yul\":11101:11115   */\n      lt\n        /* \"#utility.yul\":11094:11214   */\n      iszero\n      tag_226\n      jumpi\n        /* \"#utility.yul\":11165:11204   */\n      tag_227\n        /* \"#utility.yul\":11202:11203   */\n      0x00\n        /* \"#utility.yul\":11195:11200   */\n      dup3\n        /* \"#utility.yul\":11165:11204   */\n      tag_95\n      jump\t// in\n    tag_227:\n        /* \"#utility.yul\":11138:11139   */\n      0x01\n        /* \"#utility.yul\":11131:11136   */\n      dup2\n        /* \"#utility.yul\":11127:11140   */\n      add\n        /* \"#utility.yul\":11118:11140   */\n      swap1\n      pop\n        /* \"#utility.yul\":11094:11214   */\n      jump(tag_224)\n    tag_226:\n        /* \"#utility.yul\":11034:11220   */\n      pop\n      pop\n      jump\t// out\n        /* \"#utility.yul\":11226:11769   */\n    tag_97:\n        /* \"#utility.yul\":11327:11329   */\n      0x1f\n        /* \"#utility.yul\":11322:11325   */\n      dup3\n        /* \"#utility.yul\":11319:11330   */\n      gt\n        /* \"#utility.yul\":11316:11762   */\n      iszero\n      tag_229\n      jumpi\n        /* \"#utility.yul\":11361:11399   */\n      tag_230\n        /* \"#utility.yul\":11393:11398   */\n      dup2\n        /* \"#utility.yul\":11361:11399   */\n      tag_85\n      jump\t// in\n    tag_230:\n        /* \"#utility.yul\":11445:11474   */\n      tag_231\n        /* \"#utility.yul\":11463:11473   */\n      dup5\n        /* \"#utility.yul\":11445:11474   */\n      tag_86\n      jump\t// in\n    tag_231:\n        /* \"#utility.yul\":11435:11443   */\n      dup2\n        /* \"#utility.yul\":11431:11475   */\n      add\n        /* \"#utility.yul\":11628:11630   */\n      0x20\n        /* \"#utility.yul\":11616:11626   */\n      dup6\n        /* \"#utility.yul\":11613:11631   */\n      lt\n        /* \"#utility.yul\":11610:11659   */\n      iszero\n      tag_232\n      jumpi\n        /* \"#utility.yul\":11649:11657   */\n      dup2\n        /* \"#utility.yul\":11634:11657   */\n      swap1\n      pop\n        /* \"#utility.yul\":11610:11659   */\n    tag_232:\n        /* \"#utility.yul\":11672:11752   */\n      tag_233\n        /* \"#utility.yul\":11728:11750   */\n      tag_234\n        /* \"#utility.yul\":11746:11749   */\n      dup6\n        /* \"#utility.yul\":11728:11750   */\n      tag_86\n      jump\t// in\n    tag_234:\n        /* \"#utility.yul\":11718:11726   */\n      dup4\n        /* \"#utility.yul\":11714:11751   */\n      add\n        /* \"#utility.yul\":11701:11712   */\n      dup3\n        /* \"#utility.yul\":11672:11752   */\n      tag_96\n      jump\t// in\n    tag_233:\n        /* \"#utility.yul\":11331:11762   */\n      pop\n      pop\n        /* \"#utility.yul\":11316:11762   */\n    tag_229:\n        /* \"#utility.yul\":11226:11769   */\n      pop\n      pop\n      pop\n      jump\t// out\n        /* \"#utility.yul\":11775:11892   */\n    tag_98:\n        /* \"#utility.yul\":11829:11837   */\n      0x00\n        /* \"#utility.yul\":11879:11884   */\n      dup3\n        /* \"#utility.yul\":11873:11877   */\n      dup3\n        /* \"#utility.yul\":11869:11885   */\n      shr\n        /* \"#utility.yul\":11848:11885   */\n      swap1\n      pop\n        /* \"#utility.yul\":11775:11892   */\n      swap3\n      swap2\n      pop\n      pop\n      jump\t// out\n        /* \"#utility.yul\":11898:12067   */\n    tag_99:\n        /* \"#utility.yul\":11942:11948   */\n      0x00\n        /* \"#utility.yul\":11975:12026   */\n      tag_237\n        /* \"#utility.yul\":12023:12024   */\n      0x00\n        /* \"#utility.yul\":12019:12025   */\n      not\n        /* \"#utility.yul\":12011:12016   */\n      dup5\n        /* \"#utility.yul\":12008:12009   */\n      0x08\n        /* \"#utility.yul\":12004:12017   */\n      mul\n        /* \"#utility.yul\":11975:12026   */\n      tag_98\n      jump\t// in\n    tag_237:\n        /* \"#utility.yul\":11971:12027   */\n      not\n        /* \"#utility.yul\":12056:12060   */\n      dup1\n        /* \"#utility.yul\":12050:12054   */\n      dup4\n        /* \"#utility.yul\":12046:12061   */\n      and\n        /* \"#utility.yul\":12036:12061   */\n      swap2\n      pop\n        /* \"#utility.yul\":11949:12067   */\n      pop\n        /* \"#utility.yul\":11898:12067   */\n      swap3\n      swap2\n      pop\n      pop\n      jump\t// out\n        /* \"#utility.yul\":12072:12367   */\n    tag_100:\n        /* \"#utility.yul\":12148:12152   */\n      0x00\n        /* \"#utility.yul\":12294:12323   */\n      tag_239\n        /* \"#utility.yul\":12319:12322   */\n      dup4\n        /* \"#utility.yul\":12313:12317   */\n      dup4\n        /* \"#utility.yul\":12294:12323   */\n      tag_99\n      jump\t// in\n    tag_239:\n        /* \"#utility.yul\":12286:12323   */\n      swap2\n      pop\n        /* \"#utility.yul\":12356:12359   */\n      dup3\n        /* \"#utility.yul\":12353:12354   */\n      0x02\n        /* \"#utility.yul\":12349:12360   */\n      mul\n        /* \"#utility.yul\":12343:12347   */\n      dup3\n        /* \"#utility.yul\":12340:12361   */\n      or\n        /* \"#utility.yul\":12332:12361   */\n      swap1\n      pop\n        /* \"#utility.yul\":12072:12367   */\n      swap3\n      swap2\n      pop\n      pop\n      jump\t// out\n        /* \"#utility.yul\":12372:13767   */\n    tag_45:\n        /* \"#utility.yul\":12489:12526   */\n      tag_241\n        /* \"#utility.yul\":12522:12525   */\n      dup3\n        /* \"#utility.yul\":12489:12526   */\n      tag_73\n      jump\t// in\n    tag_241:\n        /* \"#utility.yul\":12591:12609   */\n      0xffffffffffffffff\n        /* \"#utility.yul\":12583:12589   */\n      dup2\n        /* \"#utility.yul\":12580:12610   */\n      gt\n        /* \"#utility.yul\":12577:12633   */\n      iszero\n      tag_242\n      jumpi\n        /* \"#utility.yul\":12613:12631   */\n      tag_243\n      tag_66\n      jump\t// in\n    tag_243:\n        /* \"#utility.yul\":12577:12633   */\n    tag_242:\n        /* \"#utility.yul\":12657:12695   */\n      tag_244\n        /* \"#utility.yul\":12689:12693   */\n      dup3\n        /* \"#utility.yul\":12683:12694   */\n      sload\n        /* \"#utility.yul\":12657:12695   */\n      tag_26\n      jump\t// in\n    tag_244:\n        /* \"#utility.yul\":12742:12809   */\n      tag_245\n        /* \"#utility.yul\":12802:12808   */\n      dup3\n        /* \"#utility.yul\":12794:12800   */\n      dup3\n        /* \"#utility.yul\":12788:12792   */\n      dup6\n        /* \"#utility.yul\":12742:12809   */\n      tag_97\n      jump\t// in\n    tag_245:\n        /* \"#utility.yul\":12836:12837   */\n      0x00\n        /* \"#utility.yul\":12860:12864   */\n      0x20\n        /* \"#utility.yul\":12847:12864   */\n      swap1\n      pop\n        /* \"#utility.yul\":12892:12894   */\n      0x1f\n        /* \"#utility.yul\":12884:12890   */\n      dup4\n        /* \"#utility.yul\":12881:12895   */\n      gt\n        /* \"#utility.yul\":12909:12910   */\n      0x01\n        /* \"#utility.yul\":12904:13522   */\n      dup2\n      eq\n      tag_247\n      jumpi\n        /* \"#utility.yul\":13566:13567   */\n      0x00\n        /* \"#utility.yul\":13583:13589   */\n      dup5\n        /* \"#utility.yul\":13580:13657   */\n      iszero\n      tag_248\n      jumpi\n        /* \"#utility.yul\":13632:13641   */\n      dup3\n        /* \"#utility.yul\":13627:13630   */\n      dup8\n        /* \"#utility.yul\":13623:13642   */\n      add\n        /* \"#utility.yul\":13617:13643   */\n      mload\n        /* \"#utility.yul\":13608:13643   */\n      swap1\n      pop\n        /* \"#utility.yul\":13580:13657   */\n    tag_248:\n        /* \"#utility.yul\":13683:13750   */\n      tag_249\n        /* \"#utility.yul\":13743:13749   */\n      dup6\n        /* \"#utility.yul\":13736:13741   */\n      dup3\n        /* \"#utility.yul\":13683:13750   */\n      tag_100\n      jump\t// in\n    tag_249:\n        /* \"#utility.yul\":13677:13681   */\n      dup7\n        /* \"#utility.yul\":13670:13751   */\n      sstore\n        /* \"#utility.yul\":13539:13761   */\n      pop\n        /* \"#utility.yul\":12874:13761   */\n      jump(tag_246)\n        /* \"#utility.yul\":12904:13522   */\n    tag_247:\n        /* \"#utility.yul\":12956:12960   */\n      0x1f\n        /* \"#utility.yul\":12952:12961   */\n      not\n        /* \"#utility.yul\":12944:12950   */\n      dup5\n        /* \"#utility.yul\":12940:12962   */\n      and\n        /* \"#utility.yul\":12990:13027   */\n      tag_250\n        /* \"#utility.yul\":13022:13026   */\n      dup7\n        /* \"#utility.yul\":12990:13027   */\n      tag_85\n      jump\t// in\n    tag_250:\n        /* \"#utility.yul\":13049:13050   */\n      0x00\n        /* \"#utility.yul\":13063:13271   */\n    tag_251:\n        /* \"#utility.yul\":13077:13084   */\n      dup3\n        /* \"#utility.yul\":13074:13075   */\n      dup2\n        /* \"#utility.yul\":13071:13085   */\n      lt\n        /* \"#utility.yul\":13063:13271   */\n      iszero\n      tag_253\n      jumpi\n        /* \"#utility.yul\":13156:13165   */\n      dup5\n        /* \"#utility.yul\":13151:13154   */\n      dup10\n        /* \"#utility.yul\":13147:13166   */\n      add\n        /* \"#utility.yul\":13141:13167   */\n      mload\n        /* \"#utility.yul\":13133:13139   */\n      dup3\n        /* \"#utility.yul\":13126:13168   */\n      sstore\n        /* \"#utility.yul\":13207:13208   */\n      0x01\n        /* \"#utility.yul\":13199:13205   */\n      dup3\n        /* \"#utility.yul\":13195:13209   */\n      add\n        /* \"#utility.yul\":13185:13209   */\n      swap2\n      pop\n        /* \"#utility.yul\":13254:13256   */\n      0x20\n        /* \"#utility.yul\":13243:13252   */\n      dup6\n        /* \"#utility.yul\":13239:13257   */\n      add\n        /* \"#utility.yul\":13226:13257   */\n      swap5\n      pop\n        /* \"#utility.yul\":13100:13104   */\n      0x20\n        /* \"#utility.yul\":13097:13098   */\n      dup2\n        /* \"#utility.yul\":13093:13105   */\n      add\n        /* \"#utility.yul\":13088:13105   */\n      swap1\n      pop\n        /* \"#utility.yul\":13063:13271   */\n      jump(tag_251)\n    tag_253:\n        /* \"#utility.yul\":13299:13305   */\n      dup7\n        /* \"#utility.yul\":13290:13297   */\n      dup4\n        /* \"#utility.yul\":13287:13306   */\n      lt\n        /* \"#utility.yul\":13284:13463   */\n      iszero\n      tag_254\n      jumpi\n        /* \"#utility.yul\":13357:13366   */\n      dup5\n        /* \"#utility.yul\":13352:13355   */\n      dup10\n        /* \"#utility.yul\":13348:13367   */\n      add\n        /* \"#utility.yul\":13342:13368   */\n      mload\n        /* \"#utility.yul\":13400:13448   */\n      tag_255\n        /* \"#utility.yul\":13442:13446   */\n      0x1f\n        /* \"#utility.yul\":13434:13440   */\n      dup10\n        /* \"#utility.yul\":13430:13447   */\n      and\n        /* \"#utility.yul\":13419:13428   */\n      dup3\n        /* \"#utility.yul\":13400:13448   */\n      tag_99\n      jump\t// in\n    tag_255:\n        /* \"#utility.yul\":13392:13398   */\n      dup4\n        /* \"#utility.yul\":13385:13449   */\n      sstore\n        /* \"#utility.yul\":13307:13463   */\n      pop\n        /* \"#utility.yul\":13284:13463   */\n    tag_254:\n        /* \"#utility.yul\":13509:13510   */\n      0x01\n        /* \"#utility.yul\":13505:13506   */\n      0x02\n        /* \"#utility.yul\":13497:13503   */\n      dup9\n        /* \"#utility.yul\":13493:13507   */\n      mul\n        /* \"#utility.yul\":13489:13511   */\n      add\n        /* \"#utility.yul\":13483:13487   */\n      dup9\n        /* \"#utility.yul\":13476:13512   */\n      sstore\n        /* \"#utility.yul\":12911:13522   */\n      pop\n      pop\n      pop\n        /* \"#utility.yul\":12874:13761   */\n    tag_246:\n      pop\n        /* \"#utility.yul\":12464:13767   */\n      pop\n      pop\n      pop\n        /* \"#utility.yul\":12372:13767   */\n      pop\n      pop\n      jump\t// out\n        /* \"#utility.yul\":13773:13937   */\n    tag_101:\n        /* \"#utility.yul\":13913:13929   */\n      0x4e6f7420617574686f72697a6564000000000000000000000000000000000000\n        /* \"#utility.yul\":13909:13910   */\n      0x00\n        /* \"#utility.yul\":13901:13907   */\n      dup3\n        /* \"#utility.yul\":13897:13911   */\n      add\n        /* \"#utility.yul\":13890:13930   */\n      mstore\n        /* \"#utility.yul\":13773:13937   */\n      pop\n      jump\t// out\n        /* \"#utility.yul\":13943:14309   */\n    tag_102:\n        /* \"#utility.yul\":14085:14088   */\n      0x00\n        /* \"#utility.yul\":14106:14173   */\n      tag_258\n        /* \"#utility.yul\":14170:14172   */\n      0x0e\n        /* \"#utility.yul\":14165:14168   */\n      dup4\n        /* \"#utility.yul\":14106:14173   */\n      tag_74\n      jump\t// in\n    tag_258:\n        /* \"#utility.yul\":14099:14173   */\n      swap2\n      pop\n        /* \"#utility.yul\":14182:14275   */\n      tag_259\n        /* \"#utility.yul\":14271:14274   */\n      dup3\n        /* \"#utility.yul\":14182:14275   */\n      tag_101\n      jump\t// in\n    tag_259:\n        /* \"#utility.yul\":14300:14302   */\n      0x20\n        /* \"#utility.yul\":14295:14298   */\n      dup3\n        /* \"#utility.yul\":14291:14303   */\n      add\n        /* \"#utility.yul\":14284:14303   */\n      swap1\n      pop\n        /* \"#utility.yul\":13943:14309   */\n      swap2\n      swap1\n      pop\n      jump\t// out\n        /* \"#utility.yul\":14315:14734   */\n    tag_52:\n        /* \"#utility.yul\":14481:14485   */\n      0x00\n        /* \"#utility.yul\":14519:14521   */\n      0x20\n        /* \"#utility.yul\":14508:14517   */\n      dup3\n        /* \"#utility.yul\":14504:14522   */\n      add\n        /* \"#utility.yul\":14496:14522   */\n      swap1\n      pop\n        /* \"#utility.yul\":14568:14577   */\n      dup2\n        /* \"#utility.yul\":14562:14566   */\n      dup2\n        /* \"#utility.yul\":14558:14578   */\n      sub\n        /* \"#utility.yul\":14554:14555   */\n      0x00\n        /* \"#utility.yul\":14543:14552   */\n      dup4\n        /* \"#utility.yul\":14539:14556   */\n      add\n        /* \"#utility.yul\":14532:14579   */\n      mstore\n        /* \"#utility.yul\":14596:14727   */\n      tag_261\n        /* \"#utility.yul\":14722:14726   */\n      dup2\n        /* \"#utility.yul\":14596:14727   */\n      tag_102\n      jump\t// in\n    tag_261:\n        /* \"#utility.yul\":14588:14727   */\n      swap1\n      pop\n        /* \"#utility.yul\":14315:14734   */\n      swap2\n      swap1\n      pop\n      jump\t// out\n\n    auxdata: 0xa26469706673582212204568245aa2039f18eb303042073b25d423b394b28c964cfbf086e3763be11f9164736f6c634300081e0033\n}\n",
				"bytecode": {
					"linkReferences": {},
					"object": "6080604052348015600e575f5ffd5b50610dba8061001c5f395ff3fe608060405234801561000f575f5ffd5b506004361061004a575f3560e01c80630186a4231461004e5780633406b71814610081578063347047cc1461009d578063363a01d1146100b9575b5f5ffd5b6100686004803603810190610063919061071b565b6100d5565b6040516100789493929190610801565b60405180910390f35b61009b60048036038101906100969190610859565b6102c9565b005b6100b760048036038101906100b291906108fd565b6103e0565b005b6100d360048036038101906100ce919061099d565b6104bf565b005b5f818051602081018201805184825260208301602085012081835280955050505050505f91509050805f01805461010b90610a24565b80601f016020809104026020016040519081016040528092919081815260200182805461013790610a24565b80156101825780601f1061015957610100808354040283529160200191610182565b820191905f5260205f20905b81548152906001019060200180831161016557829003601f168201915b50505050509080600101805461019790610a24565b80601f01602080910402602001604051908101604052809291908181526020018280546101c390610a24565b801561020e5780601f106101e55761010080835404028352916020019161020e565b820191905f5260205f20905b8154815290600101906020018083116101f157829003601f168201915b50505050509080600201805461022390610a24565b80601f016020809104026020016040519081016040528092919081815260200182805461024f90610a24565b801561029a5780601f106102715761010080835404028352916020019161029a565b820191905f5260205f20905b81548152906001019060200180831161027d57829003601f168201915b505050505090806003015f9054906101000a900473ffffffffffffffffffffffffffffffffffffffff16905084565b60405180608001604052808381526020018281526020016040518060400160405280600781526020017f437265617465640000000000000000000000000000000000000000000000000081525081526020013373ffffffffffffffffffffffffffffffffffffffff168152505f846040516103449190610a8e565b90815260200160405180910390205f820151815f0190816103659190610c4d565b50602082015181600101908161037b9190610c4d565b5060408201518160020190816103919190610c4d565b506060820151816003015f6101000a81548173ffffffffffffffffffffffffffffffffffffffff021916908373ffffffffffffffffffffffffffffffffffffffff160217905550905050505050565b3373ffffffffffffffffffffffffffffffffffffffff165f836040516104069190610a8e565b90815260200160405180910390206003015f9054906101000a900473ffffffffffffffffffffffffffffffffffffffff1673ffffffffffffffffffffffffffffffffffffffff161461048d576040517f08c379a000000000000000000000000000000000000000000000000000000000815260040161048490610d66565b60405180910390fd5b805f8360405161049d9190610a8e565b908152602001604051809103902060020190816104ba9190610c4d565b505050565b3373ffffffffffffffffffffffffffffffffffffffff165f836040516104e59190610a8e565b90815260200160405180910390206003015f9054906101000a900473ffffffffffffffffffffffffffffffffffffffff1673ffffffffffffffffffffffffffffffffffffffff161461056c576040517f08c379a000000000000000000000000000000000000000000000000000000000815260040161056390610d66565b60405180910390fd5b805f8360405161057c9190610a8e565b90815260200160405180910390206003015f6101000a81548173ffffffffffffffffffffffffffffffffffffffff021916908373ffffffffffffffffffffffffffffffffffffffff1602179055505050565b5f604051905090565b5f5ffd5b5f5ffd5b5f5ffd5b5f5ffd5b5f601f19601f8301169050919050565b7f4e487b71000000000000000000000000000000000000000000000000000000005f52604160045260245ffd5b61062d826105e7565b810181811067ffffffffffffffff8211171561064c5761064b6105f7565b5b80604052505050565b5f61065e6105ce565b905061066a8282610624565b919050565b5f67ffffffffffffffff821115610689576106886105f7565b5b610692826105e7565b9050602081019050919050565b828183375f83830152505050565b5f6106bf6106ba8461066f565b610655565b9050828152602081018484840111156106db576106da6105e3565b5b6106e684828561069f565b509392505050565b5f82601f830112610702576107016105df565b5b81356107128482602086016106ad565b91505092915050565b5f602082840312156107305761072f6105d7565b5b5f82013567ffffffffffffffff81111561074d5761074c6105db565b5b610759848285016106ee565b91505092915050565b5f81519050919050565b5f82825260208201905092915050565b8281835e5f83830152505050565b5f61079482610762565b61079e818561076c565b93506107ae81856020860161077c565b6107b7816105e7565b840191505092915050565b5f73ffffffffffffffffffffffffffffffffffffffff82169050919050565b5f6107eb826107c2565b9050919050565b6107fb816107e1565b82525050565b5f6080820190508181035f830152610819818761078a565b9050818103602083015261082d818661078a565b90508181036040830152610841818561078a565b905061085060608301846107f2565b95945050505050565b5f5f5f606084860312156108705761086f6105d7565b5b5f84013567ffffffffffffffff81111561088d5761088c6105db565b5b610899868287016106ee565b935050602084013567ffffffffffffffff8111156108ba576108b96105db565b5b6108c6868287016106ee565b925050604084013567ffffffffffffffff8111156108e7576108e66105db565b5b6108f3868287016106ee565b9150509250925092565b5f5f60408385031215610913576109126105d7565b5b5f83013567ffffffffffffffff8111156109305761092f6105db565b5b61093c858286016106ee565b925050602083013567ffffffffffffffff81111561095d5761095c6105db565b5b610969858286016106ee565b9150509250929050565b61097c816107e1565b8114610986575f5ffd5b50565b5f8135905061099781610973565b92915050565b5f5f604083850312156109b3576109b26105d7565b5b5f83013567ffffffffffffffff8111156109d0576109cf6105db565b5b6109dc858286016106ee565b92505060206109ed85828601610989565b9150509250929050565b7f4e487b71000000000000000000000000000000000000000000000000000000005f52602260045260245ffd5b5f6002820490506001821680610a3b57607f821691505b602082108103610a4e57610a4d6109f7565b5b50919050565b5f81905092915050565b5f610a6882610762565b610a728185610a54565b9350610a8281856020860161077c565b80840191505092915050565b5f610a998284610a5e565b915081905092915050565b5f819050815f5260205f209050919050565b5f6020601f8301049050919050565b5f82821b905092915050565b5f60088302610b007fffffffffffffffffffffffffffffffffffffffffffffffffffffffffffffffff82610ac5565b610b0a8683610ac5565b95508019841693508086168417925050509392505050565b5f819050919050565b5f819050919050565b5f610b4e610b49610b4484610b22565b610b2b565b610b22565b9050919050565b5f819050919050565b610b6783610b34565b610b7b610b7382610b55565b848454610ad1565b825550505050565b5f5f905090565b610b92610b83565b610b9d818484610b5e565b505050565b5b81811015610bc057610bb55f82610b8a565b600181019050610ba3565b5050565b601f821115610c0557610bd681610aa4565b610bdf84610ab6565b81016020851015610bee578190505b610c02610bfa85610ab6565b830182610ba2565b50505b505050565b5f82821c905092915050565b5f610c255f1984600802610c0a565b1980831691505092915050565b5f610c3d8383610c16565b9150826002028217905092915050565b610c5682610762565b67ffffffffffffffff811115610c6f57610c6e6105f7565b5b610c798254610a24565b610c84828285610bc4565b5f60209050601f831160018114610cb5575f8415610ca3578287015190505b610cad8582610c32565b865550610d14565b601f198416610cc386610aa4565b5f5b82811015610cea57848901518255600182019150602085019450602081019050610cc5565b86831015610d075784890151610d03601f891682610c16565b8355505b6001600288020188555050505b505050505050565b7f4e6f7420617574686f72697a65640000000000000000000000000000000000005f82015250565b5f610d50600e8361076c565b9150610d5b82610d1c565b602082019050919050565b5f6020820190508181035f830152610d7d81610d44565b905091905056fea26469706673582212204568245aa2039f18eb303042073b25d423b394b28c964cfbf086e3763be11f9164736f6c634300081e0033",
					"opcodes": "PUSH1 0x80 PUSH1 0x40 MSTORE CALLVALUE DUP1 ISZERO PUSH1 0xE JUMPI PUSH0 PUSH0 REVERT JUMPDEST POP PUSH2 0xDBA DUP1 PUSH2 0x1C PUSH0 CODECOPY PUSH0 RETURN INVALID PUSH1 0x80 PUSH1 0x40 MSTORE CALLVALUE DUP1 ISZERO PUSH2 0xF JUMPI PUSH0 PUSH0 REVERT JUMPDEST POP PUSH1 0x4 CALLDATASIZE LT PUSH2 0x4A JUMPI PUSH0 CALLDATALOAD PUSH1 0xE0 SHR DUP1 PUSH4 0x186A423 EQ PUSH2 0x4E JUMPI DUP1 PUSH4 0x3406B718 EQ PUSH2 0x81 JUMPI DUP1 PUSH4 0x347047CC EQ PUSH2 0x9D JUMPI DUP1 PUSH4 0x363A01D1 EQ PUSH2 0xB9 JUMPI JUMPDEST PUSH0 PUSH0 REVERT JUMPDEST PUSH2 0x68 PUSH1 0x4 DUP1 CALLDATASIZE SUB DUP2 ADD SWAP1 PUSH2 0x63 SWAP2 SWAP1 PUSH2 0x71B JUMP JUMPDEST PUSH2 0xD5 JUMP JUMPDEST PUSH1 0x40 MLOAD PUSH2 0x78 SWAP5 SWAP4 SWAP3 SWAP2 SWAP1 PUSH2 0x801 JUMP JUMPDEST PUSH1 0x40 MLOAD DUP1 SWAP2 SUB SWAP1 RETURN JUMPDEST PUSH2 0x9B PUSH1 0x4 DUP1 CALLDATASIZE SUB DUP2 ADD SWAP1 PUSH2 0x96 SWAP2 SWAP1 PUSH2 0x859 JUMP JUMPDEST PUSH2 0x2C9 JUMP JUMPDEST STOP JUMPDEST PUSH2 0xB7 PUSH1 0x4 DUP1 CALLDATASIZE SUB DUP2 ADD SWAP1 PUSH2 0xB2 SWAP2 SWAP1 PUSH2 0x8FD JUMP JUMPDEST PUSH2 0x3E0 JUMP JUMPDEST STOP JUMPDEST PUSH2 0xD3 PUSH1 0x4 DUP1 CALLDATASIZE SUB DUP2 ADD SWAP1 PUSH2 0xCE SWAP2 SWAP1 PUSH2 0x99D JUMP JUMPDEST PUSH2 0x4BF JUMP JUMPDEST STOP JUMPDEST PUSH0 DUP2 DUP1 MLOAD PUSH1 0x20 DUP2 ADD DUP3 ADD DUP1 MLOAD DUP5 DUP3 MSTORE PUSH1 0x20 DUP4 ADD PUSH1 0x20 DUP6 ADD KECCAK256 DUP2 DUP4 MSTORE DUP1 SWAP6 POP POP POP POP POP POP PUSH0 SWAP2 POP SWAP1 POP DUP1 PUSH0 ADD DUP1 SLOAD PUSH2 0x10B SWAP1 PUSH2 0xA24 JUMP JUMPDEST DUP1 PUSH1 0x1F ADD PUSH1 0x20 DUP1 SWAP2 DIV MUL PUSH1 0x20 ADD PUSH1 0x40 MLOAD SWAP1 DUP2 ADD PUSH1 0x40 MSTORE DUP1 SWAP3 SWAP2 SWAP1 DUP2 DUP2 MSTORE PUSH1 0x20 ADD DUP3 DUP1 SLOAD PUSH2 0x137 SWAP1 PUSH2 0xA24 JUMP JUMPDEST DUP1 ISZERO PUSH2 0x182 JUMPI DUP1 PUSH1 0x1F LT PUSH2 0x159 JUMPI PUSH2 0x100 DUP1 DUP4 SLOAD DIV MUL DUP4 MSTORE SWAP2 PUSH1 0x20 ADD SWAP2 PUSH2 0x182 JUMP JUMPDEST DUP3 ADD SWAP2 SWAP1 PUSH0 MSTORE PUSH1 0x20 PUSH0 KECCAK256 SWAP1 JUMPDEST DUP2 SLOAD DUP2 MSTORE SWAP1 PUSH1 0x1 ADD SWAP1 PUSH1 0x20 ADD DUP1 DUP4 GT PUSH2 0x165 JUMPI DUP3 SWAP1 SUB PUSH1 0x1F AND DUP3 ADD SWAP2 JUMPDEST POP POP POP POP POP SWAP1 DUP1 PUSH1 0x1 ADD DUP1 SLOAD PUSH2 0x197 SWAP1 PUSH2 0xA24 JUMP JUMPDEST DUP1 PUSH1 0x1F ADD PUSH1 0x20 DUP1 SWAP2 DIV MUL PUSH1 0x20 ADD PUSH1 0x40 MLOAD SWAP1 DUP2 ADD PUSH1 0x40 MSTORE DUP1 SWAP3 SWAP2 SWAP1 DUP2 DUP2 MSTORE PUSH1 0x20 ADD DUP3 DUP1 SLOAD PUSH2 0x1C3 SWAP1 PUSH2 0xA24 JUMP JUMPDEST DUP1 ISZERO PUSH2 0x20E JUMPI DUP1 PUSH1 0x1F LT PUSH2 0x1E5 JUMPI PUSH2 0x100 DUP1 DUP4 SLOAD DIV MUL DUP4 MSTORE SWAP2 PUSH1 0x20 ADD SWAP2 PUSH2 0x20E JUMP JUMPDEST DUP3 ADD SWAP2 SWAP1 PUSH0 MSTORE PUSH1 0x20 PUSH0 KECCAK256 SWAP1 JUMPDEST DUP2 SLOAD DUP2 MSTORE SWAP1 PUSH1 0x1 ADD SWAP1 PUSH1 0x20 ADD DUP1 DUP4 GT PUSH2 0x1F1 JUMPI DUP3 SWAP1 SUB PUSH1 0x1F AND DUP3 ADD SWAP2 JUMPDEST POP POP POP POP POP SWAP1 DUP1 PUSH1 0x2 ADD DUP1 SLOAD PUSH2 0x223 SWAP1 PUSH2 0xA24 JUMP JUMPDEST DUP1 PUSH1 0x1F ADD PUSH1 0x20 DUP1 SWAP2 DIV MUL PUSH1 0x20 ADD PUSH1 0x40 MLOAD SWAP1 DUP2 ADD PUSH1 0x40 MSTORE DUP1 SWAP3 SWAP2 SWAP1 DUP2 DUP2 MSTORE PUSH1 0x20 ADD DUP3 DUP1 SLOAD PUSH2 0x24F SWAP1 PUSH2 0xA24 JUMP JUMPDEST DUP1 ISZERO PUSH2 0x29A JUMPI DUP1 PUSH1 0x1F LT PUSH2 0x271 JUMPI PUSH2 0x100 DUP1 DUP4 SLOAD DIV MUL DUP4 MSTORE SWAP2 PUSH1 0x20 ADD SWAP2 PUSH2 0x29A JUMP JUMPDEST DUP3 ADD SWAP2 SWAP1 PUSH0 MSTORE PUSH1 0x20 PUSH0 KECCAK256 SWAP1 JUMPDEST DUP2 SLOAD DUP2 MSTORE SWAP1 PUSH1 0x1 ADD SWAP1 PUSH1 0x20 ADD DUP1 DUP4 GT PUSH2 0x27D JUMPI DUP3 SWAP1 SUB PUSH1 0x1F AND DUP3 ADD SWAP2 JUMPDEST POP POP POP POP POP SWAP1 DUP1 PUSH1 0x3 ADD PUSH0 SWAP1 SLOAD SWAP1 PUSH2 0x100 EXP SWAP1 DIV PUSH20 0xFFFFFFFFFFFFFFFFFFFFFFFFFFFFFFFFFFFFFFFF AND SWAP1 POP DUP5 JUMP JUMPDEST PUSH1 0x40 MLOAD DUP1 PUSH1 0x80 ADD PUSH1 0x40 MSTORE DUP1 DUP4 DUP2 MSTORE PUSH1 0x20 ADD DUP3 DUP2 MSTORE PUSH1 0x20 ADD PUSH1 0x40 MLOAD DUP1 PUSH1 0x40 ADD PUSH1 0x40 MSTORE DUP1 PUSH1 0x7 DUP2 MSTORE PUSH1 0x20 ADD PUSH32 0x4372656174656400000000000000000000000000000000000000000000000000 DUP2 MSTORE POP DUP2 MSTORE PUSH1 0x20 ADD CALLER PUSH20 0xFFFFFFFFFFFFFFFFFFFFFFFFFFFFFFFFFFFFFFFF AND DUP2 MSTORE POP PUSH0 DUP5 PUSH1 0x40 MLOAD PUSH2 0x344 SWAP2 SWAP1 PUSH2 0xA8E JUMP JUMPDEST SWAP1 DUP2 MSTORE PUSH1 0x20 ADD PUSH1 0x40 MLOAD DUP1 SWAP2 SUB SWAP1 KECCAK256 PUSH0 DUP3 ADD MLOAD DUP2 PUSH0 ADD SWAP1 DUP2 PUSH2 0x365 SWAP2 SWAP1 PUSH2 0xC4D JUMP JUMPDEST POP PUSH1 0x20 DUP3 ADD MLOAD DUP2 PUSH1 0x1 ADD SWAP1 DUP2 PUSH2 0x37B SWAP2 SWAP1 PUSH2 0xC4D JUMP JUMPDEST POP PUSH1 0x40 DUP3 ADD MLOAD DUP2 PUSH1 0x2 ADD SWAP1 DUP2 PUSH2 0x391 SWAP2 SWAP1 PUSH2 0xC4D JUMP JUMPDEST POP PUSH1 0x60 DUP3 ADD MLOAD DUP2 PUSH1 0x3 ADD PUSH0 PUSH2 0x100 EXP DUP2 SLOAD DUP2 PUSH20 0xFFFFFFFFFFFFFFFFFFFFFFFFFFFFFFFFFFFFFFFF MUL NOT AND SWAP1 DUP4 PUSH20 0xFFFFFFFFFFFFFFFFFFFFFFFFFFFFFFFFFFFFFFFF AND MUL OR SWAP1 SSTORE POP SWAP1 POP POP POP POP POP JUMP JUMPDEST CALLER PUSH20 0xFFFFFFFFFFFFFFFFFFFFFFFFFFFFFFFFFFFFFFFF AND PUSH0 DUP4 PUSH1 0x40 MLOAD PUSH2 0x406 SWAP2 SWAP1 PUSH2 0xA8E JUMP JUMPDEST SWAP1 DUP2 MSTORE PUSH1 0x20 ADD PUSH1 0x40 MLOAD DUP1 SWAP2 SUB SWAP1 KECCAK256 PUSH1 0x3 ADD PUSH0 SWAP1 SLOAD SWAP1 PUSH2 0x100 EXP SWAP1 DIV PUSH20 0xFFFFFFFFFFFFFFFFFFFFFFFFFFFFFFFFFFFFFFFF AND PUSH20 0xFFFFFFFFFFFFFFFFFFFFFFFFFFFFFFFFFFFFFFFF AND EQ PUSH2 0x48D JUMPI PUSH1 0x40 MLOAD PUSH32 0x8C379A000000000000000000000000000000000000000000000000000000000 DUP2 MSTORE PUSH1 0x4 ADD PUSH2 0x484 SWAP1 PUSH2 0xD66 JUMP JUMPDEST PUSH1 0x40 MLOAD DUP1 SWAP2 SUB SWAP1 REVERT JUMPDEST DUP1 PUSH0 DUP4 PUSH1 0x40 MLOAD PUSH2 0x49D SWAP2 SWAP1 PUSH2 0xA8E JUMP JUMPDEST SWAP1 DUP2 MSTORE PUSH1 0x20 ADD PUSH1 0x40 MLOAD DUP1 SWAP2 SUB SWAP1 KECCAK256 PUSH1 0x2 ADD SWAP1 DUP2 PUSH2 0x4BA SWAP2 SWAP1 PUSH2 0xC4D JUMP JUMPDEST POP POP POP JUMP JUMPDEST CALLER PUSH20 0xFFFFFFFFFFFFFFFFFFFFFFFFFFFFFFFFFFFFFFFF AND PUSH0 DUP4 PUSH1 0x40 MLOAD PUSH2 0x4E5 SWAP2 SWAP1 PUSH2 0xA8E JUMP JUMPDEST SWAP1 DUP2 MSTORE PUSH1 0x20 ADD PUSH1 0x40 MLOAD DUP1 SWAP2 SUB SWAP1 KECCAK256 PUSH1 0x3 ADD PUSH0 SWAP1 SLOAD SWAP1 PUSH2 0x100 EXP SWAP1 DIV PUSH20 0xFFFFFFFFFFFFFFFFFFFFFFFFFFFFFFFFFFFFFFFF AND PUSH20 0xFFFFFFFFFFFFFFFFFFFFFFFFFFFFFFFFFFFFFFFF AND EQ PUSH2 0x56C JUMPI PUSH1 0x40 MLOAD PUSH32 0x8C379A000000000000000000000000000000000000000000000000000000000 DUP2 MSTORE PUSH1 0x4 ADD PUSH2 0x563 SWAP1 PUSH2 0xD66 JUMP JUMPDEST PUSH1 0x40 MLOAD DUP1 SWAP2 SUB SWAP1 REVERT JUMPDEST DUP1 PUSH0 DUP4 PUSH1 0x40 MLOAD PUSH2 0x57C SWAP2 SWAP1 PUSH2 0xA8E JUMP JUMPDEST SWAP1 DUP2 MSTORE PUSH1 0x20 ADD PUSH1 0x40 MLOAD DUP1 SWAP2 SUB SWAP1 KECCAK256 PUSH1 0x3 ADD PUSH0 PUSH2 0x100 EXP DUP2 SLOAD DUP2 PUSH20 0xFFFFFFFFFFFFFFFFFFFFFFFFFFFFFFFFFFFFFFFF MUL NOT AND SWAP1 DUP4 PUSH20 0xFFFFFFFFFFFFFFFFFFFFFFFFFFFFFFFFFFFFFFFF AND MUL OR SWAP1 SSTORE POP POP POP JUMP JUMPDEST PUSH0 PUSH1 0x40 MLOAD SWAP1 POP SWAP1 JUMP JUMPDEST PUSH0 PUSH0 REVERT JUMPDEST PUSH0 PUSH0 REVERT JUMPDEST PUSH0 PUSH0 REVERT JUMPDEST PUSH0 PUSH0 REVERT JUMPDEST PUSH0 PUSH1 0x1F NOT PUSH1 0x1F DUP4 ADD AND SWAP1 POP SWAP2 SWAP1 POP JUMP JUMPDEST PUSH32 0x4E487B7100000000000000000000000000000000000000000000000000000000 PUSH0 MSTORE PUSH1 0x41 PUSH1 0x4 MSTORE PUSH1 0x24 PUSH0 REVERT JUMPDEST PUSH2 0x62D DUP3 PUSH2 0x5E7 JUMP JUMPDEST DUP2 ADD DUP2 DUP2 LT PUSH8 0xFFFFFFFFFFFFFFFF DUP3 GT OR ISZERO PUSH2 0x64C JUMPI PUSH2 0x64B PUSH2 0x5F7 JUMP JUMPDEST JUMPDEST DUP1 PUSH1 0x40 MSTORE POP POP POP JUMP JUMPDEST PUSH0 PUSH2 0x65E PUSH2 0x5CE JUMP JUMPDEST SWAP1 POP PUSH2 0x66A DUP3 DUP3 PUSH2 0x624 JUMP JUMPDEST SWAP2 SWAP1 POP JUMP JUMPDEST PUSH0 PUSH8 0xFFFFFFFFFFFFFFFF DUP3 GT ISZERO PUSH2 0x689 JUMPI PUSH2 0x688 PUSH2 0x5F7 JUMP JUMPDEST JUMPDEST PUSH2 0x692 DUP3 PUSH2 0x5E7 JUMP JUMPDEST SWAP1 POP PUSH1 0x20 DUP2 ADD SWAP1 POP SWAP2 SWAP1 POP JUMP JUMPDEST DUP3 DUP2 DUP4 CALLDATACOPY PUSH0 DUP4 DUP4 ADD MSTORE POP POP POP JUMP JUMPDEST PUSH0 PUSH2 0x6BF PUSH2 0x6BA DUP5 PUSH2 0x66F JUMP JUMPDEST PUSH2 0x655 JUMP JUMPDEST SWAP1 POP DUP3 DUP2 MSTORE PUSH1 0x20 DUP2 ADD DUP5 DUP5 DUP5 ADD GT ISZERO PUSH2 0x6DB JUMPI PUSH2 0x6DA PUSH2 0x5E3 JUMP JUMPDEST JUMPDEST PUSH2 0x6E6 DUP5 DUP3 DUP6 PUSH2 0x69F JUMP JUMPDEST POP SWAP4 SWAP3 POP POP POP JUMP JUMPDEST PUSH0 DUP3 PUSH1 0x1F DUP4 ADD SLT PUSH2 0x702 JUMPI PUSH2 0x701 PUSH2 0x5DF JUMP JUMPDEST JUMPDEST DUP2 CALLDATALOAD PUSH2 0x712 DUP5 DUP3 PUSH1 0x20 DUP7 ADD PUSH2 0x6AD JUMP JUMPDEST SWAP2 POP POP SWAP3 SWAP2 POP POP JUMP JUMPDEST PUSH0 PUSH1 0x20 DUP3 DUP5 SUB SLT ISZERO PUSH2 0x730 JUMPI PUSH2 0x72F PUSH2 0x5D7 JUMP JUMPDEST JUMPDEST PUSH0 DUP3 ADD CALLDATALOAD PUSH8 0xFFFFFFFFFFFFFFFF DUP2 GT ISZERO PUSH2 0x74D JUMPI PUSH2 0x74C PUSH2 0x5DB JUMP JUMPDEST JUMPDEST PUSH2 0x759 DUP5 DUP3 DUP6 ADD PUSH2 0x6EE JUMP JUMPDEST SWAP2 POP POP SWAP3 SWAP2 POP POP JUMP JUMPDEST PUSH0 DUP2 MLOAD SWAP1 POP SWAP2 SWAP1 POP JUMP JUMPDEST PUSH0 DUP3 DUP3 MSTORE PUSH1 0x20 DUP3 ADD SWAP1 POP SWAP3 SWAP2 POP POP JUMP JUMPDEST DUP3 DUP2 DUP4 MCOPY PUSH0 DUP4 DUP4 ADD MSTORE POP POP POP JUMP JUMPDEST PUSH0 PUSH2 0x794 DUP3 PUSH2 0x762 JUMP JUMPDEST PUSH2 0x79E DUP2 DUP6 PUSH2 0x76C JUMP JUMPDEST SWAP4 POP PUSH2 0x7AE DUP2 DUP6 PUSH1 0x20 DUP7 ADD PUSH2 0x77C JUMP JUMPDEST PUSH2 0x7B7 DUP2 PUSH2 0x5E7 JUMP JUMPDEST DUP5 ADD SWAP2 POP POP SWAP3 SWAP2 POP POP JUMP JUMPDEST PUSH0 PUSH20 0xFFFFFFFFFFFFFFFFFFFFFFFFFFFFFFFFFFFFFFFF DUP3 AND SWAP1 POP SWAP2 SWAP1 POP JUMP JUMPDEST PUSH0 PUSH2 0x7EB DUP3 PUSH2 0x7C2 JUMP JUMPDEST SWAP1 POP SWAP2 SWAP1 POP JUMP JUMPDEST PUSH2 0x7FB DUP2 PUSH2 0x7E1 JUMP JUMPDEST DUP3 MSTORE POP POP JUMP JUMPDEST PUSH0 PUSH1 0x80 DUP3 ADD SWAP1 POP DUP2 DUP2 SUB PUSH0 DUP4 ADD MSTORE PUSH2 0x819 DUP2 DUP8 PUSH2 0x78A JUMP JUMPDEST SWAP1 POP DUP2 DUP2 SUB PUSH1 0x20 DUP4 ADD MSTORE PUSH2 0x82D DUP2 DUP7 PUSH2 0x78A JUMP JUMPDEST SWAP1 POP DUP2 DUP2 SUB PUSH1 0x40 DUP4 ADD MSTORE PUSH2 0x841 DUP2 DUP6 PUSH2 0x78A JUMP JUMPDEST SWAP1 POP PUSH2 0x850 PUSH1 0x60 DUP4 ADD DUP5 PUSH2 0x7F2 JUMP JUMPDEST SWAP6 SWAP5 POP POP POP POP POP JUMP JUMPDEST PUSH0 PUSH0 PUSH0 PUSH1 0x60 DUP5 DUP7 SUB SLT ISZERO PUSH2 0x870 JUMPI PUSH2 0x86F PUSH2 0x5D7 JUMP JUMPDEST JUMPDEST PUSH0 DUP5 ADD CALLDATALOAD PUSH8 0xFFFFFFFFFFFFFFFF DUP2 GT ISZERO PUSH2 0x88D JUMPI PUSH2 0x88C PUSH2 0x5DB JUMP JUMPDEST JUMPDEST PUSH2 0x899 DUP7 DUP3 DUP8 ADD PUSH2 0x6EE JUMP JUMPDEST SWAP4 POP POP PUSH1 0x20 DUP5 ADD CALLDATALOAD PUSH8 0xFFFFFFFFFFFFFFFF DUP2 GT ISZERO PUSH2 0x8BA JUMPI PUSH2 0x8B9 PUSH2 0x5DB JUMP JUMPDEST JUMPDEST PUSH2 0x8C6 DUP7 DUP3 DUP8 ADD PUSH2 0x6EE JUMP JUMPDEST SWAP3 POP POP PUSH1 0x40 DUP5 ADD CALLDATALOAD PUSH8 0xFFFFFFFFFFFFFFFF DUP2 GT ISZERO PUSH2 0x8E7 JUMPI PUSH2 0x8E6 PUSH2 0x5DB JUMP JUMPDEST JUMPDEST PUSH2 0x8F3 DUP7 DUP3 DUP8 ADD PUSH2 0x6EE JUMP JUMPDEST SWAP2 POP POP SWAP3 POP SWAP3 POP SWAP3 JUMP JUMPDEST PUSH0 PUSH0 PUSH1 0x40 DUP4 DUP6 SUB SLT ISZERO PUSH2 0x913 JUMPI PUSH2 0x912 PUSH2 0x5D7 JUMP JUMPDEST JUMPDEST PUSH0 DUP4 ADD CALLDATALOAD PUSH8 0xFFFFFFFFFFFFFFFF DUP2 GT ISZERO PUSH2 0x930 JUMPI PUSH2 0x92F PUSH2 0x5DB JUMP JUMPDEST JUMPDEST PUSH2 0x93C DUP6 DUP3 DUP7 ADD PUSH2 0x6EE JUMP JUMPDEST SWAP3 POP POP PUSH1 0x20 DUP4 ADD CALLDATALOAD PUSH8 0xFFFFFFFFFFFFFFFF DUP2 GT ISZERO PUSH2 0x95D JUMPI PUSH2 0x95C PUSH2 0x5DB JUMP JUMPDEST JUMPDEST PUSH2 0x969 DUP6 DUP3 DUP7 ADD PUSH2 0x6EE JUMP JUMPDEST SWAP2 POP POP SWAP3 POP SWAP3 SWAP1 POP JUMP JUMPDEST PUSH2 0x97C DUP2 PUSH2 0x7E1 JUMP JUMPDEST DUP2 EQ PUSH2 0x986 JUMPI PUSH0 PUSH0 REVERT JUMPDEST POP JUMP JUMPDEST PUSH0 DUP2 CALLDATALOAD SWAP1 POP PUSH2 0x997 DUP2 PUSH2 0x973 JUMP JUMPDEST SWAP3 SWAP2 POP POP JUMP JUMPDEST PUSH0 PUSH0 PUSH1 0x40 DUP4 DUP6 SUB SLT ISZERO PUSH2 0x9B3 JUMPI PUSH2 0x9B2 PUSH2 0x5D7 JUMP JUMPDEST JUMPDEST PUSH0 DUP4 ADD CALLDATALOAD PUSH8 0xFFFFFFFFFFFFFFFF DUP2 GT ISZERO PUSH2 0x9D0 JUMPI PUSH2 0x9CF PUSH2 0x5DB JUMP JUMPDEST JUMPDEST PUSH2 0x9DC DUP6 DUP3 DUP7 ADD PUSH2 0x6EE JUMP JUMPDEST SWAP3 POP POP PUSH1 0x20 PUSH2 0x9ED DUP6 DUP3 DUP7 ADD PUSH2 0x989 JUMP JUMPDEST SWAP2 POP POP SWAP3 POP SWAP3 SWAP1 POP JUMP JUMPDEST PUSH32 0x4E487B7100000000000000000000000000000000000000000000000000000000 PUSH0 MSTORE PUSH1 0x22 PUSH1 0x4 MSTORE PUSH1 0x24 PUSH0 REVERT JUMPDEST PUSH0 PUSH1 0x2 DUP3 DIV SWAP1 POP PUSH1 0x1 DUP3 AND DUP1 PUSH2 0xA3B JUMPI PUSH1 0x7F DUP3 AND SWAP2 POP JUMPDEST PUSH1 0x20 DUP3 LT DUP2 SUB PUSH2 0xA4E JUMPI PUSH2 0xA4D PUSH2 0x9F7 JUMP JUMPDEST JUMPDEST POP SWAP2 SWAP1 POP JUMP JUMPDEST PUSH0 DUP2 SWAP1 POP SWAP3 SWAP2 POP POP JUMP JUMPDEST PUSH0 PUSH2 0xA68 DUP3 PUSH2 0x762 JUMP JUMPDEST PUSH2 0xA72 DUP2 DUP6 PUSH2 0xA54 JUMP JUMPDEST SWAP4 POP PUSH2 0xA82 DUP2 DUP6 PUSH1 0x20 DUP7 ADD PUSH2 0x77C JUMP JUMPDEST DUP1 DUP5 ADD SWAP2 POP POP SWAP3 SWAP2 POP POP JUMP JUMPDEST PUSH0 PUSH2 0xA99 DUP3 DUP5 PUSH2 0xA5E JUMP JUMPDEST SWAP2 POP DUP2 SWAP1 POP SWAP3 SWAP2 POP POP JUMP JUMPDEST PUSH0 DUP2 SWAP1 POP DUP2 PUSH0 MSTORE PUSH1 0x20 PUSH0 KECCAK256 SWAP1 POP SWAP2 SWAP1 POP JUMP JUMPDEST PUSH0 PUSH1 0x20 PUSH1 0x1F DUP4 ADD DIV SWAP1 POP SWAP2 SWAP1 POP JUMP JUMPDEST PUSH0 DUP3 DUP3 SHL SWAP1 POP SWAP3 SWAP2 POP POP JUMP JUMPDEST PUSH0 PUSH1 0x8 DUP4 MUL PUSH2 0xB00 PUSH32 0xFFFFFFFFFFFFFFFFFFFFFFFFFFFFFFFFFFFFFFFFFFFFFFFFFFFFFFFFFFFFFFFF DUP3 PUSH2 0xAC5 JUMP JUMPDEST PUSH2 0xB0A DUP7 DUP4 PUSH2 0xAC5 JUMP JUMPDEST SWAP6 POP DUP1 NOT DUP5 AND SWAP4 POP DUP1 DUP7 AND DUP5 OR SWAP3 POP POP POP SWAP4 SWAP3 POP POP POP JUMP JUMPDEST PUSH0 DUP2 SWAP1 POP SWAP2 SWAP1 POP JUMP JUMPDEST PUSH0 DUP2 SWAP1 POP SWAP2 SWAP1 POP JUMP JUMPDEST PUSH0 PUSH2 0xB4E PUSH2 0xB49 PUSH2 0xB44 DUP5 PUSH2 0xB22 JUMP JUMPDEST PUSH2 0xB2B JUMP JUMPDEST PUSH2 0xB22 JUMP JUMPDEST SWAP1 POP SWAP2 SWAP1 POP JUMP JUMPDEST PUSH0 DUP2 SWAP1 POP SWAP2 SWAP1 POP JUMP JUMPDEST PUSH2 0xB67 DUP4 PUSH2 0xB34 JUMP JUMPDEST PUSH2 0xB7B PUSH2 0xB73 DUP3 PUSH2 0xB55 JUMP JUMPDEST DUP5 DUP5 SLOAD PUSH2 0xAD1 JUMP JUMPDEST DUP3 SSTORE POP POP POP POP JUMP JUMPDEST PUSH0 PUSH0 SWAP1 POP SWAP1 JUMP JUMPDEST PUSH2 0xB92 PUSH2 0xB83 JUMP JUMPDEST PUSH2 0xB9D DUP2 DUP5 DUP5 PUSH2 0xB5E JUMP JUMPDEST POP POP POP JUMP JUMPDEST JUMPDEST DUP2 DUP2 LT ISZERO PUSH2 0xBC0 JUMPI PUSH2 0xBB5 PUSH0 DUP3 PUSH2 0xB8A JUMP JUMPDEST PUSH1 0x1 DUP2 ADD SWAP1 POP PUSH2 0xBA3 JUMP JUMPDEST POP POP JUMP JUMPDEST PUSH1 0x1F DUP3 GT ISZERO PUSH2 0xC05 JUMPI PUSH2 0xBD6 DUP2 PUSH2 0xAA4 JUMP JUMPDEST PUSH2 0xBDF DUP5 PUSH2 0xAB6 JUMP JUMPDEST DUP2 ADD PUSH1 0x20 DUP6 LT ISZERO PUSH2 0xBEE JUMPI DUP2 SWAP1 POP JUMPDEST PUSH2 0xC02 PUSH2 0xBFA DUP6 PUSH2 0xAB6 JUMP JUMPDEST DUP4 ADD DUP3 PUSH2 0xBA2 JUMP JUMPDEST POP POP JUMPDEST POP POP POP JUMP JUMPDEST PUSH0 DUP3 DUP3 SHR SWAP1 POP SWAP3 SWAP2 POP POP JUMP JUMPDEST PUSH0 PUSH2 0xC25 PUSH0 NOT DUP5 PUSH1 0x8 MUL PUSH2 0xC0A JUMP JUMPDEST NOT DUP1 DUP4 AND SWAP2 POP POP SWAP3 SWAP2 POP POP JUMP JUMPDEST PUSH0 PUSH2 0xC3D DUP4 DUP4 PUSH2 0xC16 JUMP JUMPDEST SWAP2 POP DUP3 PUSH1 0x2 MUL DUP3 OR SWAP1 POP SWAP3 SWAP2 POP POP JUMP JUMPDEST PUSH2 0xC56 DUP3 PUSH2 0x762 JUMP JUMPDEST PUSH8 0xFFFFFFFFFFFFFFFF DUP2 GT ISZERO PUSH2 0xC6F JUMPI PUSH2 0xC6E PUSH2 0x5F7 JUMP JUMPDEST JUMPDEST PUSH2 0xC79 DUP3 SLOAD PUSH2 0xA24 JUMP JUMPDEST PUSH2 0xC84 DUP3 DUP3 DUP6 PUSH2 0xBC4 JUMP JUMPDEST PUSH0 PUSH1 0x20 SWAP1 POP PUSH1 0x1F DUP4 GT PUSH1 0x1 DUP2 EQ PUSH2 0xCB5 JUMPI PUSH0 DUP5 ISZERO PUSH2 0xCA3 JUMPI DUP3 DUP8 ADD MLOAD SWAP1 POP JUMPDEST PUSH2 0xCAD DUP6 DUP3 PUSH2 0xC32 JUMP JUMPDEST DUP7 SSTORE POP PUSH2 0xD14 JUMP JUMPDEST PUSH1 0x1F NOT DUP5 AND PUSH2 0xCC3 DUP7 PUSH2 0xAA4 JUMP JUMPDEST PUSH0 JUMPDEST DUP3 DUP2 LT ISZERO PUSH2 0xCEA JUMPI DUP5 DUP10 ADD MLOAD DUP3 SSTORE PUSH1 0x1 DUP3 ADD SWAP2 POP PUSH1 0x20 DUP6 ADD SWAP5 POP PUSH1 0x20 DUP2 ADD SWAP1 POP PUSH2 0xCC5 JUMP JUMPDEST DUP7 DUP4 LT ISZERO PUSH2 0xD07 JUMPI DUP5 DUP10 ADD MLOAD PUSH2 0xD03 PUSH1 0x1F DUP10 AND DUP3 PUSH2 0xC16 JUMP JUMPDEST DUP4 SSTORE POP JUMPDEST PUSH1 0x1 PUSH1 0x2 DUP9 MUL ADD DUP9 SSTORE POP POP POP JUMPDEST POP POP POP POP POP POP JUMP JUMPDEST PUSH32 0x4E6F7420617574686F72697A6564000000000000000000000000000000000000 PUSH0 DUP3 ADD MSTORE POP JUMP JUMPDEST PUSH0 PUSH2 0xD50 PUSH1 0xE DUP4 PUSH2 0x76C JUMP JUMPDEST SWAP2 POP PUSH2 0xD5B DUP3 PUSH2 0xD1C JUMP JUMPDEST PUSH1 0x20 DUP3 ADD SWAP1 POP SWAP2 SWAP1 POP JUMP JUMPDEST PUSH0 PUSH1 0x20 DUP3 ADD SWAP1 POP DUP2 DUP2 SUB PUSH0 DUP4 ADD MSTORE PUSH2 0xD7D DUP2 PUSH2 0xD44 JUMP JUMPDEST SWAP1 POP SWAP2 SWAP1 POP JUMP INVALID LOG2 PUSH5 0x6970667358 0x22 SLT KECCAK256 GASLIMIT PUSH9 0x245AA2039F18EB3030 TIMESTAMP SMOD EXTCODESIZE 0x25 0xD4 0x23 0xB3 SWAP5 0xB2 DUP13 SWAP7 0x4C EXTSTATICCALL CREATE DUP7 CALLF 0x763B RJUMPI 0x1F91 PUSH5 0x736F6C6343 STOP ADDMOD 0x1E STOP CALLER "
				},
				"gasEstimates": {
					"creation": {
						"codeDepositCost": "702800",
						"executionCost": "732",
						"totalCost": "703532"
					},
					"external": {
						"products(string)": "infinite",
						"registerProduct(string,string,string)": "infinite",
						"transferHolder(string,address)": "infinite",
						"updateStatus(string,string)": "infinite"
					}
				},
				"methodIdentifiers": {
					"products(string)": "0186a423",
					"registerProduct(string,string,string)": "3406b718",
					"transferHolder(string,address)": "363a01d1",
					"updateStatus(string,string)": "347047cc"
				}
			},
			"storageLayout": {
				"storage": [
					{
						"astId": 15,
						"contract": "contract/contracts/SupplyChain.sol:SupplyChain",
						"label": "products",
						"offset": 0,
						"slot": "0",
						"type": "t_mapping(t_string_memory_ptr,t_struct(Product)10_storage)"
					}
				],
				"types": {
					"t_address": {
						"encoding": "inplace",
						"label": "address",
						"numberOfBytes": "20"
					},
					"t_mapping(t_string_memory_ptr,t_struct(Product)10_storage)": {
						"encoding": "mapping",
						"key": "t_string_memory_ptr",
						"label": "mapping(string => struct SupplyChain.Product)",
						"numberOfBytes": "32",
						"value": "t_struct(Product)10_storage"
					},
					"t_string_memory_ptr": {
						"encoding": "bytes",
						"label": "string",
						"numberOfBytes": "32"
					},
					"t_string_storage": {
						"encoding": "bytes",
						"label": "string",
						"numberOfBytes": "32"
					},
					"t_struct(Product)10_storage": {
						"encoding": "inplace",
						"label": "struct SupplyChain.Product",
						"members": [
							{
								"astId": 3,
								"contract": "contract/contracts/SupplyChain.sol:SupplyChain",
								"label": "name",
								"offset": 0,
								"slot": "0",
								"type": "t_string_storage"
							},
							{
								"astId": 5,
								"contract": "contract/contracts/SupplyChain.sol:SupplyChain",
								"label": "origin",
								"offset": 0,
								"slot": "1",
								"type": "t_string_storage"
							},
							{
								"astId": 7,
								"contract": "contract/contracts/SupplyChain.sol:SupplyChain",
								"label": "status",
								"offset": 0,
								"slot": "2",
								"type": "t_string_storage"
							},
							{
								"astId": 9,
								"contract": "contract/contracts/SupplyChain.sol:SupplyChain",
								"label": "currentHolder",
								"offset": 0,
								"slot": "3",
								"type": "t_address"
							}
						],
						"numberOfBytes": "128"
					}
				}
			},
			"userdoc": {
				"kind": "user",
				"methods": {},
				"version": 1
			}
		}
	}
}